{
  "_format": "hh-sol-artifact-1",
  "contractName": "InspiroNFT",
  "sourceName": "src/backend/contracts/InspiroNFT.sol",
  "abi": [
    {
      "inputs": [
        {
          "internalType": "string",
          "name": "_name",
          "type": "string"
        },
        {
          "internalType": "string",
          "name": "_symbol",
          "type": "string"
        },
        {
          "internalType": "string",
          "name": "_initBaseURI",
          "type": "string"
        },
        {
          "internalType": "uint256",
          "name": "_maxSupply",
          "type": "uint256"
        },
        {
          "internalType": "uint256",
          "name": "_mintPrice",
          "type": "uint256"
        }
      ],
      "stateMutability": "nonpayable",
      "type": "constructor"
    },
    {
      "anonymous": false,
      "inputs": [
        {
          "indexed": true,
          "internalType": "address",
          "name": "owner",
          "type": "address"
        },
        {
          "indexed": true,
          "internalType": "address",
          "name": "approved",
          "type": "address"
        },
        {
          "indexed": true,
          "internalType": "uint256",
          "name": "tokenId",
          "type": "uint256"
        }
      ],
      "name": "Approval",
      "type": "event"
    },
    {
      "anonymous": false,
      "inputs": [
        {
          "indexed": true,
          "internalType": "address",
          "name": "owner",
          "type": "address"
        },
        {
          "indexed": true,
          "internalType": "address",
          "name": "operator",
          "type": "address"
        },
        {
          "indexed": false,
          "internalType": "bool",
          "name": "approved",
          "type": "bool"
        }
      ],
      "name": "ApprovalForAll",
      "type": "event"
    },
    {
      "anonymous": false,
      "inputs": [
        {
          "indexed": true,
          "internalType": "address",
          "name": "previousOwner",
          "type": "address"
        },
        {
          "indexed": true,
          "internalType": "address",
          "name": "newOwner",
          "type": "address"
        }
      ],
      "name": "OwnershipTransferred",
      "type": "event"
    },
    {
      "anonymous": false,
      "inputs": [
        {
          "indexed": true,
          "internalType": "address",
          "name": "from",
          "type": "address"
        },
        {
          "indexed": true,
          "internalType": "address",
          "name": "to",
          "type": "address"
        },
        {
          "indexed": true,
          "internalType": "uint256",
          "name": "tokenId",
          "type": "uint256"
        }
      ],
      "name": "Transfer",
      "type": "event"
    },
    {
      "inputs": [
        {
          "internalType": "address",
          "name": "to",
          "type": "address"
        },
        {
          "internalType": "uint256",
          "name": "tokenId",
          "type": "uint256"
        }
      ],
      "name": "approve",
      "outputs": [],
      "stateMutability": "nonpayable",
      "type": "function"
    },
    {
      "inputs": [
        {
          "internalType": "address",
          "name": "owner",
          "type": "address"
        }
      ],
      "name": "balanceOf",
      "outputs": [
        {
          "internalType": "uint256",
          "name": "",
          "type": "uint256"
        }
      ],
      "stateMutability": "view",
      "type": "function"
    },
    {
      "inputs": [],
      "name": "baseExtension",
      "outputs": [
        {
          "internalType": "string",
          "name": "",
          "type": "string"
        }
      ],
      "stateMutability": "view",
      "type": "function"
    },
    {
      "inputs": [],
      "name": "baseURI",
      "outputs": [
        {
          "internalType": "string",
          "name": "",
          "type": "string"
        }
      ],
      "stateMutability": "view",
      "type": "function"
    },
    {
      "inputs": [
        {
          "internalType": "uint256",
          "name": "tokenId",
          "type": "uint256"
        }
      ],
      "name": "getApproved",
      "outputs": [
        {
          "internalType": "address",
          "name": "",
          "type": "address"
        }
      ],
      "stateMutability": "view",
      "type": "function"
    },
    {
      "inputs": [
        {
          "internalType": "address",
          "name": "owner",
          "type": "address"
        },
        {
          "internalType": "address",
          "name": "operator",
          "type": "address"
        }
      ],
      "name": "isApprovedForAll",
      "outputs": [
        {
          "internalType": "bool",
          "name": "",
          "type": "bool"
        }
      ],
      "stateMutability": "view",
      "type": "function"
    },
    {
      "inputs": [],
      "name": "maxSupply",
      "outputs": [
        {
          "internalType": "uint256",
          "name": "",
          "type": "uint256"
        }
      ],
      "stateMutability": "view",
      "type": "function"
    },
    {
      "inputs": [
        {
          "internalType": "uint256",
          "name": "_mintAmount",
          "type": "uint256"
        }
      ],
      "name": "mint",
      "outputs": [],
      "stateMutability": "payable",
      "type": "function"
    },
    {
      "inputs": [],
      "name": "mintPrice",
      "outputs": [
        {
          "internalType": "uint256",
          "name": "",
          "type": "uint256"
        }
      ],
      "stateMutability": "view",
      "type": "function"
    },
    {
      "inputs": [],
      "name": "name",
      "outputs": [
        {
          "internalType": "string",
          "name": "",
          "type": "string"
        }
      ],
      "stateMutability": "view",
      "type": "function"
    },
    {
      "inputs": [],
      "name": "owner",
      "outputs": [
        {
          "internalType": "address",
          "name": "",
          "type": "address"
        }
      ],
      "stateMutability": "view",
      "type": "function"
    },
    {
      "inputs": [
        {
          "internalType": "uint256",
          "name": "tokenId",
          "type": "uint256"
        }
      ],
      "name": "ownerOf",
      "outputs": [
        {
          "internalType": "address",
          "name": "",
          "type": "address"
        }
      ],
      "stateMutability": "view",
      "type": "function"
    },
    {
      "inputs": [],
      "name": "renounceOwnership",
      "outputs": [],
      "stateMutability": "nonpayable",
      "type": "function"
    },
    {
      "inputs": [
        {
          "internalType": "address",
          "name": "from",
          "type": "address"
        },
        {
          "internalType": "address",
          "name": "to",
          "type": "address"
        },
        {
          "internalType": "uint256",
          "name": "tokenId",
          "type": "uint256"
        }
      ],
      "name": "safeTransferFrom",
      "outputs": [],
      "stateMutability": "nonpayable",
      "type": "function"
    },
    {
      "inputs": [
        {
          "internalType": "address",
          "name": "from",
          "type": "address"
        },
        {
          "internalType": "address",
          "name": "to",
          "type": "address"
        },
        {
          "internalType": "uint256",
          "name": "tokenId",
          "type": "uint256"
        },
        {
          "internalType": "bytes",
          "name": "_data",
          "type": "bytes"
        }
      ],
      "name": "safeTransferFrom",
      "outputs": [],
      "stateMutability": "nonpayable",
      "type": "function"
    },
    {
      "inputs": [
        {
          "internalType": "address",
          "name": "operator",
          "type": "address"
        },
        {
          "internalType": "bool",
          "name": "approved",
          "type": "bool"
        }
      ],
      "name": "setApprovalForAll",
      "outputs": [],
      "stateMutability": "nonpayable",
      "type": "function"
    },
    {
      "inputs": [
        {
          "internalType": "string",
          "name": "_newBaseURI",
          "type": "string"
        }
      ],
      "name": "setBaseURI",
      "outputs": [],
      "stateMutability": "nonpayable",
      "type": "function"
    },
    {
      "inputs": [
        {
          "internalType": "bytes4",
          "name": "interfaceId",
          "type": "bytes4"
        }
      ],
      "name": "supportsInterface",
      "outputs": [
        {
          "internalType": "bool",
          "name": "",
          "type": "bool"
        }
      ],
      "stateMutability": "view",
      "type": "function"
    },
    {
      "inputs": [],
      "name": "symbol",
      "outputs": [
        {
          "internalType": "string",
          "name": "",
          "type": "string"
        }
      ],
      "stateMutability": "view",
      "type": "function"
    },
    {
      "inputs": [],
      "name": "tokenCount",
      "outputs": [
        {
          "internalType": "uint256",
          "name": "",
          "type": "uint256"
        }
      ],
      "stateMutability": "view",
      "type": "function"
    },
    {
      "inputs": [
        {
          "internalType": "uint256",
          "name": "_tokenId",
          "type": "uint256"
        }
      ],
      "name": "tokenURI",
      "outputs": [
        {
          "internalType": "string",
          "name": "",
          "type": "string"
        }
      ],
      "stateMutability": "view",
      "type": "function"
    },
    {
      "inputs": [
        {
          "internalType": "address",
          "name": "from",
          "type": "address"
        },
        {
          "internalType": "address",
          "name": "to",
          "type": "address"
        },
        {
          "internalType": "uint256",
          "name": "tokenId",
          "type": "uint256"
        }
      ],
      "name": "transferFrom",
      "outputs": [],
      "stateMutability": "nonpayable",
      "type": "function"
    },
    {
      "inputs": [
        {
          "internalType": "address",
          "name": "newOwner",
          "type": "address"
        }
      ],
      "name": "transferOwnership",
      "outputs": [],
      "stateMutability": "nonpayable",
      "type": "function"
    },
    {
      "inputs": [],
      "name": "withdrawEth",
      "outputs": [],
      "stateMutability": "nonpayable",
      "type": "function"
    }
  ],
  "bytecode": "0x60a06040526040518060400160405280600481526020017f2e6a7067000000000000000000000000000000000000000000000000000000008152506008908051906020019062000051929190620001dc565b503480156200005f57600080fd5b506040516200392138038062003921833981810160405281019062000085919062000315565b848481600090805190602001906200009f929190620001dc565b508060019080519060200190620000b8929190620001dc565b505050620000db620000cf6200010e60201b60201c565b6200011660201b60201c565b816080818152505080600a81905550826007908051906020019062000102929190620001dc565b50505050505062000576565b600033905090565b6000600660009054906101000a900473ffffffffffffffffffffffffffffffffffffffff16905081600660006101000a81548173ffffffffffffffffffffffffffffffffffffffff021916908373ffffffffffffffffffffffffffffffffffffffff1602179055508173ffffffffffffffffffffffffffffffffffffffff168173ffffffffffffffffffffffffffffffffffffffff167f8be0079c531659141344cd1fd0a4f28419497f9722a3daafe3b4186f6b6457e060405160405180910390a35050565b828054620001ea9062000481565b90600052602060002090601f0160209004810192826200020e57600085556200025a565b82601f106200022957805160ff19168380011785556200025a565b828001600101855582156200025a579182015b82811115620002595782518255916020019190600101906200023c565b5b5090506200026991906200026d565b5090565b5b80821115620002885760008160009055506001016200026e565b5090565b6000620002a36200029d846200040b565b620003e2565b905082815260208101848484011115620002bc57600080fd5b620002c98482856200044b565b509392505050565b600082601f830112620002e357600080fd5b8151620002f58482602086016200028c565b91505092915050565b6000815190506200030f816200055c565b92915050565b600080600080600060a086880312156200032e57600080fd5b600086015167ffffffffffffffff8111156200034957600080fd5b6200035788828901620002d1565b955050602086015167ffffffffffffffff8111156200037557600080fd5b6200038388828901620002d1565b945050604086015167ffffffffffffffff811115620003a157600080fd5b620003af88828901620002d1565b9350506060620003c288828901620002fe565b9250506080620003d588828901620002fe565b9150509295509295909350565b6000620003ee62000401565b9050620003fc8282620004b7565b919050565b6000604051905090565b600067ffffffffffffffff8211156200042957620004286200051c565b5b62000434826200054b565b9050602081019050919050565b6000819050919050565b60005b838110156200046b5780820151818401526020810190506200044e565b838111156200047b576000848401525b50505050565b600060028204905060018216806200049a57607f821691505b60208210811415620004b157620004b0620004ed565b5b50919050565b620004c2826200054b565b810181811067ffffffffffffffff82111715620004e457620004e36200051c565b5b80604052505050565b7f4e487b7100000000000000000000000000000000000000000000000000000000600052602260045260246000fd5b7f4e487b7100000000000000000000000000000000000000000000000000000000600052604160045260246000fd5b6000601f19601f8301169050919050565b620005678162000441565b81146200057357600080fd5b50565b6080516133886200059960003960008181610cfd015261105301526133886000f3fe60806040526004361061014b5760003560e01c80638da5cb5b116100b6578063b88d4fde1161006f578063b88d4fde1461045d578063c668286214610486578063c87b56dd146104b1578063d5abeb01146104ee578063e985e9c514610519578063f2fde38b146105565761014b565b80638da5cb5b1461038057806395d89b41146103ab5780639f181b5e146103d6578063a0712d6814610401578063a0ef91df1461041d578063a22cb465146104345761014b565b806355f804b31161010857806355f804b3146102705780636352211e146102995780636817c76c146102d65780636c0360eb1461030157806370a082311461032c578063715018a6146103695761014b565b806301ffc9a71461015057806306fdde031461018d578063081812fc146101b8578063095ea7b3146101f557806323b872dd1461021e57806342842e0e14610247575b600080fd5b34801561015c57600080fd5b5061017760048036038101906101729190612345565b61057f565b6040516101849190612818565b60405180910390f35b34801561019957600080fd5b506101a2610661565b6040516101af9190612833565b60405180910390f35b3480156101c457600080fd5b506101df60048036038101906101da91906123d8565b6106f3565b6040516101ec91906127b1565b60405180910390f35b34801561020157600080fd5b5061021c60048036038101906102179190612309565b610778565b005b34801561022a57600080fd5b5061024560048036038101906102409190612203565b610890565b005b34801561025357600080fd5b5061026e60048036038101906102699190612203565b6108f0565b005b34801561027c57600080fd5b5061029760048036038101906102929190612397565b610910565b005b3480156102a557600080fd5b506102c060048036038101906102bb91906123d8565b6109a6565b6040516102cd91906127b1565b60405180910390f35b3480156102e257600080fd5b506102eb610a58565b6040516102f89190612a55565b60405180910390f35b34801561030d57600080fd5b50610316610a5e565b6040516103239190612833565b60405180910390f35b34801561033857600080fd5b50610353600480360381019061034e919061219e565b610aec565b6040516103609190612a55565b60405180910390f35b34801561037557600080fd5b5061037e610ba4565b005b34801561038c57600080fd5b50610395610c2c565b6040516103a291906127b1565b60405180910390f35b3480156103b757600080fd5b506103c0610c56565b6040516103cd9190612833565b60405180910390f35b3480156103e257600080fd5b506103eb610ce8565b6040516103f89190612a55565b60405180910390f35b61041b600480360381019061041691906123d8565b610cee565b005b34801561042957600080fd5b50610432610ddc565b005b34801561044057600080fd5b5061045b600480360381019061045691906122cd565b610ea1565b005b34801561046957600080fd5b50610484600480360381019061047f9190612252565b610eb7565b005b34801561049257600080fd5b5061049b610f19565b6040516104a89190612833565b60405180910390f35b3480156104bd57600080fd5b506104d860048036038101906104d391906123d8565b610fa7565b6040516104e59190612833565b60405180910390f35b3480156104fa57600080fd5b50610503611051565b6040516105109190612a55565b60405180910390f35b34801561052557600080fd5b50610540600480360381019061053b91906121c7565b611075565b60405161054d9190612818565b60405180910390f35b34801561056257600080fd5b5061057d6004803603810190610578919061219e565b611109565b005b60007f80ac58cd000000000000000000000000000000000000000000000000000000007bffffffffffffffffffffffffffffffffffffffffffffffffffffffff1916827bffffffffffffffffffffffffffffffffffffffffffffffffffffffff1916148061064a57507f5b5e139f000000000000000000000000000000000000000000000000000000007bffffffffffffffffffffffffffffffffffffffffffffffffffffffff1916827bffffffffffffffffffffffffffffffffffffffffffffffffffffffff1916145b8061065a575061065982611201565b5b9050919050565b60606000805461067090612d1a565b80601f016020809104026020016040519081016040528092919081815260200182805461069c90612d1a565b80156106e95780601f106106be576101008083540402835291602001916106e9565b820191906000526020600020905b8154815290600101906020018083116106cc57829003601f168201915b5050505050905090565b60006106fe8261126b565b61073d576040517f08c379a0000000000000000000000000000000000000000000000000000000008152600401610734906129d5565b60405180910390fd5b6004600083815260200190815260200160002060009054906101000a900473ffffffffffffffffffffffffffffffffffffffff169050919050565b6000610783826109a6565b90508073ffffffffffffffffffffffffffffffffffffffff168373ffffffffffffffffffffffffffffffffffffffff1614156107f4576040517f08c379a00000000000000000000000000000000000000000000000000000000081526004016107eb90612a15565b60405180910390fd5b8073ffffffffffffffffffffffffffffffffffffffff166108136112d7565b73ffffffffffffffffffffffffffffffffffffffff16148061084257506108418161083c6112d7565b611075565b5b610881576040517f08c379a000000000000000000000000000000000000000000000000000000000815260040161087890612955565b60405180910390fd5b61088b83836112df565b505050565b6108a161089b6112d7565b82611398565b6108e0576040517f08c379a00000000000000000000000000000000000000000000000000000000081526004016108d790612a35565b60405180910390fd5b6108eb838383611476565b505050565b61090b83838360405180602001604052806000815250610eb7565b505050565b6109186112d7565b73ffffffffffffffffffffffffffffffffffffffff16610936610c2c565b73ffffffffffffffffffffffffffffffffffffffff161461098c576040517f08c379a0000000000000000000000000000000000000000000000000000000008152600401610983906129f5565b60405180910390fd5b80600790805190602001906109a2929190611fc2565b5050565b6000806002600084815260200190815260200160002060009054906101000a900473ffffffffffffffffffffffffffffffffffffffff169050600073ffffffffffffffffffffffffffffffffffffffff168173ffffffffffffffffffffffffffffffffffffffff161415610a4f576040517f08c379a0000000000000000000000000000000000000000000000000000000008152600401610a4690612995565b60405180910390fd5b80915050919050565b600a5481565b60078054610a6b90612d1a565b80601f0160208091040260200160405190810160405280929190818152602001828054610a9790612d1a565b8015610ae45780601f10610ab957610100808354040283529160200191610ae4565b820191906000526020600020905b815481529060010190602001808311610ac757829003601f168201915b505050505081565b60008073ffffffffffffffffffffffffffffffffffffffff168273ffffffffffffffffffffffffffffffffffffffff161415610b5d576040517f08c379a0000000000000000000000000000000000000000000000000000000008152600401610b5490612975565b60405180910390fd5b600360008373ffffffffffffffffffffffffffffffffffffffff1673ffffffffffffffffffffffffffffffffffffffff168152602001908152602001600020549050919050565b610bac6112d7565b73ffffffffffffffffffffffffffffffffffffffff16610bca610c2c565b73ffffffffffffffffffffffffffffffffffffffff1614610c20576040517f08c379a0000000000000000000000000000000000000000000000000000000008152600401610c17906129f5565b60405180910390fd5b610c2a60006116dd565b565b6000600660009054906101000a900473ffffffffffffffffffffffffffffffffffffffff16905090565b606060018054610c6590612d1a565b80601f0160208091040260200160405190810160405280929190818152602001828054610c9190612d1a565b8015610cde5780601f10610cb357610100808354040283529160200191610cde565b820191906000526020600020905b815481529060010190602001808311610cc157829003601f168201915b5050505050905090565b60095481565b60008111610cfb57600080fd5b7f000000000000000000000000000000000000000000000000000000000000000081600954610d2a9190612b4f565b1115610d3557600080fd5b610d3d610c2c565b73ffffffffffffffffffffffffffffffffffffffff163373ffffffffffffffffffffffffffffffffffffffff1614610d8a5780600a54610d7d9190612bd6565b341015610d8957600080fd5b5b60005b81811015610dbf57610dac3382600954610da79190612b4f565b6117a3565b8080610db790612d7d565b915050610d8d565b508060096000828254610dd29190612b4f565b9250508190555050565b610de46112d7565b73ffffffffffffffffffffffffffffffffffffffff16610e02610c2c565b73ffffffffffffffffffffffffffffffffffffffff1614610e58576040517f08c379a0000000000000000000000000000000000000000000000000000000008152600401610e4f906129f5565b60405180910390fd5b3373ffffffffffffffffffffffffffffffffffffffff166108fc479081150290604051600060405180830381858888f19350505050158015610e9e573d6000803e3d6000fd5b50565b610eb3610eac6112d7565b83836117c1565b5050565b610ec8610ec26112d7565b83611398565b610f07576040517f08c379a0000000000000000000000000000000000000000000000000000000008152600401610efe90612a35565b60405180910390fd5b610f138484848461192e565b50505050565b60088054610f2690612d1a565b80601f0160208091040260200160405190810160405280929190818152602001828054610f5290612d1a565b8015610f9f5780601f10610f7457610100808354040283529160200191610f9f565b820191906000526020600020905b815481529060010190602001808311610f8257829003601f168201915b505050505081565b6060610fb28261126b565b610ff1576040517f08c379a0000000000000000000000000000000000000000000000000000000008152600401610fe890612915565b60405180910390fd5b6000610ffb61198a565b9050600081511161101b5760405180602001604052806000815250611049565b8061102584611a1c565b600860405160200161103993929190612780565b6040516020818303038152906040525b915050919050565b7f000000000000000000000000000000000000000000000000000000000000000081565b6000600560008473ffffffffffffffffffffffffffffffffffffffff1673ffffffffffffffffffffffffffffffffffffffff16815260200190815260200160002060008373ffffffffffffffffffffffffffffffffffffffff1673ffffffffffffffffffffffffffffffffffffffff16815260200190815260200160002060009054906101000a900460ff16905092915050565b6111116112d7565b73ffffffffffffffffffffffffffffffffffffffff1661112f610c2c565b73ffffffffffffffffffffffffffffffffffffffff1614611185576040517f08c379a000000000000000000000000000000000000000000000000000000000815260040161117c906129f5565b60405180910390fd5b600073ffffffffffffffffffffffffffffffffffffffff168173ffffffffffffffffffffffffffffffffffffffff1614156111f5576040517f08c379a00000000000000000000000000000000000000000000000000000000081526004016111ec90612875565b60405180910390fd5b6111fe816116dd565b50565b60007f01ffc9a7000000000000000000000000000000000000000000000000000000007bffffffffffffffffffffffffffffffffffffffffffffffffffffffff1916827bffffffffffffffffffffffffffffffffffffffffffffffffffffffff1916149050919050565b60008073ffffffffffffffffffffffffffffffffffffffff166002600084815260200190815260200160002060009054906101000a900473ffffffffffffffffffffffffffffffffffffffff1673ffffffffffffffffffffffffffffffffffffffff1614159050919050565b600033905090565b816004600083815260200190815260200160002060006101000a81548173ffffffffffffffffffffffffffffffffffffffff021916908373ffffffffffffffffffffffffffffffffffffffff160217905550808273ffffffffffffffffffffffffffffffffffffffff16611352836109a6565b73ffffffffffffffffffffffffffffffffffffffff167f8c5be1e5ebec7d5bd14f71427d1e84f3dd0314c0f7b2291e5b200ac8c7c3b92560405160405180910390a45050565b60006113a38261126b565b6113e2576040517f08c379a00000000000000000000000000000000000000000000000000000000081526004016113d990612935565b60405180910390fd5b60006113ed836109a6565b90508073ffffffffffffffffffffffffffffffffffffffff168473ffffffffffffffffffffffffffffffffffffffff16148061145c57508373ffffffffffffffffffffffffffffffffffffffff16611444846106f3565b73ffffffffffffffffffffffffffffffffffffffff16145b8061146d575061146c8185611075565b5b91505092915050565b8273ffffffffffffffffffffffffffffffffffffffff16611496826109a6565b73ffffffffffffffffffffffffffffffffffffffff16146114ec576040517f08c379a00000000000000000000000000000000000000000000000000000000081526004016114e390612895565b60405180910390fd5b600073ffffffffffffffffffffffffffffffffffffffff168273ffffffffffffffffffffffffffffffffffffffff16141561155c576040517f08c379a0000000000000000000000000000000000000000000000000000000008152600401611553906128d5565b60405180910390fd5b611567838383611bc9565b6115726000826112df565b6001600360008573ffffffffffffffffffffffffffffffffffffffff1673ffffffffffffffffffffffffffffffffffffffff16815260200190815260200160002060008282546115c29190612c30565b925050819055506001600360008473ffffffffffffffffffffffffffffffffffffffff1673ffffffffffffffffffffffffffffffffffffffff16815260200190815260200160002060008282546116199190612b4f565b92505081905550816002600083815260200190815260200160002060006101000a81548173ffffffffffffffffffffffffffffffffffffffff021916908373ffffffffffffffffffffffffffffffffffffffff160217905550808273ffffffffffffffffffffffffffffffffffffffff168473ffffffffffffffffffffffffffffffffffffffff167fddf252ad1be2c89b69c2b068fc378daa952ba7f163c4a11628f55a4df523b3ef60405160405180910390a46116d8838383611bce565b505050565b6000600660009054906101000a900473ffffffffffffffffffffffffffffffffffffffff16905081600660006101000a81548173ffffffffffffffffffffffffffffffffffffffff021916908373ffffffffffffffffffffffffffffffffffffffff1602179055508173ffffffffffffffffffffffffffffffffffffffff168173ffffffffffffffffffffffffffffffffffffffff167f8be0079c531659141344cd1fd0a4f28419497f9722a3daafe3b4186f6b6457e060405160405180910390a35050565b6117bd828260405180602001604052806000815250611bd3565b5050565b8173ffffffffffffffffffffffffffffffffffffffff168373ffffffffffffffffffffffffffffffffffffffff161415611830576040517f08c379a0000000000000000000000000000000000000000000000000000000008152600401611827906128f5565b60405180910390fd5b80600560008573ffffffffffffffffffffffffffffffffffffffff1673ffffffffffffffffffffffffffffffffffffffff16815260200190815260200160002060008473ffffffffffffffffffffffffffffffffffffffff1673ffffffffffffffffffffffffffffffffffffffff16815260200190815260200160002060006101000a81548160ff0219169083151502179055508173ffffffffffffffffffffffffffffffffffffffff168373ffffffffffffffffffffffffffffffffffffffff167f17307eab39ab6107e8899845ad3d59bd9653f200f220920489ca2b5937696c31836040516119219190612818565b60405180910390a3505050565b611939848484611476565b61194584848484611c2e565b611984576040517f08c379a000000000000000000000000000000000000000000000000000000000815260040161197b90612855565b60405180910390fd5b50505050565b60606007805461199990612d1a565b80601f01602080910402602001604051908101604052809291908181526020018280546119c590612d1a565b8015611a125780601f106119e757610100808354040283529160200191611a12565b820191906000526020600020905b8154815290600101906020018083116119f557829003601f168201915b5050505050905090565b60606000821415611a64576040518060400160405280600181526020017f30000000000000000000000000000000000000000000000000000000000000008152509050611bc4565b600082905060005b60008214611a96578080611a7f90612d7d565b915050600a82611a8f9190612ba5565b9150611a6c565b60008167ffffffffffffffff811115611ad8577f4e487b7100000000000000000000000000000000000000000000000000000000600052604160045260246000fd5b6040519080825280601f01601f191660200182016040528015611b0a5781602001600182028036833780820191505090505b5090505b60008514611bbd57600182611b239190612c30565b9150600a85611b329190612dc6565b6030611b3e9190612b4f565b60f81b818381518110611b7a577f4e487b7100000000000000000000000000000000000000000000000000000000600052603260045260246000fd5b60200101907effffffffffffffffffffffffffffffffffffffffffffffffffffffffffffff1916908160001a905350600a85611bb69190612ba5565b9450611b0e565b8093505050505b919050565b505050565b505050565b611bdd8383611dc5565b611bea6000848484611c2e565b611c29576040517f08c379a0000000000000000000000000000000000000000000000000000000008152600401611c2090612855565b60405180910390fd5b505050565b6000611c4f8473ffffffffffffffffffffffffffffffffffffffff16611f9f565b15611db8578373ffffffffffffffffffffffffffffffffffffffff1663150b7a02611c786112d7565b8786866040518563ffffffff1660e01b8152600401611c9a94939291906127cc565b602060405180830381600087803b158015611cb457600080fd5b505af1925050508015611ce557506040513d601f19601f82011682018060405250810190611ce2919061236e565b60015b611d68573d8060008114611d15576040519150601f19603f3d011682016040523d82523d6000602084013e611d1a565b606091505b50600081511415611d60576040517f08c379a0000000000000000000000000000000000000000000000000000000008152600401611d5790612855565b60405180910390fd5b805181602001fd5b63150b7a0260e01b7bffffffffffffffffffffffffffffffffffffffffffffffffffffffff1916817bffffffffffffffffffffffffffffffffffffffffffffffffffffffff191614915050611dbd565b600190505b949350505050565b600073ffffffffffffffffffffffffffffffffffffffff168273ffffffffffffffffffffffffffffffffffffffff161415611e35576040517f08c379a0000000000000000000000000000000000000000000000000000000008152600401611e2c906129b5565b60405180910390fd5b611e3e8161126b565b15611e7e576040517f08c379a0000000000000000000000000000000000000000000000000000000008152600401611e75906128b5565b60405180910390fd5b611e8a60008383611bc9565b6001600360008473ffffffffffffffffffffffffffffffffffffffff1673ffffffffffffffffffffffffffffffffffffffff1681526020019081526020016000206000828254611eda9190612b4f565b92505081905550816002600083815260200190815260200160002060006101000a81548173ffffffffffffffffffffffffffffffffffffffff021916908373ffffffffffffffffffffffffffffffffffffffff160217905550808273ffffffffffffffffffffffffffffffffffffffff16600073ffffffffffffffffffffffffffffffffffffffff167fddf252ad1be2c89b69c2b068fc378daa952ba7f163c4a11628f55a4df523b3ef60405160405180910390a4611f9b60008383611bce565b5050565b6000808273ffffffffffffffffffffffffffffffffffffffff163b119050919050565b828054611fce90612d1a565b90600052602060002090601f016020900481019282611ff05760008555612037565b82601f1061200957805160ff1916838001178555612037565b82800160010185558215612037579182015b8281111561203657825182559160200191906001019061201b565b5b5090506120449190612048565b5090565b5b80821115612061576000816000905550600101612049565b5090565b600061207861207384612a95565b612a70565b90508281526020810184848401111561209057600080fd5b61209b848285612cd8565b509392505050565b60006120b66120b184612ac6565b612a70565b9050828152602081018484840111156120ce57600080fd5b6120d9848285612cd8565b509392505050565b6000813590506120f0816132f6565b92915050565b6000813590506121058161330d565b92915050565b60008135905061211a81613324565b92915050565b60008151905061212f81613324565b92915050565b600082601f83011261214657600080fd5b8135612156848260208601612065565b91505092915050565b600082601f83011261217057600080fd5b81356121808482602086016120a3565b91505092915050565b6000813590506121988161333b565b92915050565b6000602082840312156121b057600080fd5b60006121be848285016120e1565b91505092915050565b600080604083850312156121da57600080fd5b60006121e8858286016120e1565b92505060206121f9858286016120e1565b9150509250929050565b60008060006060848603121561221857600080fd5b6000612226868287016120e1565b9350506020612237868287016120e1565b925050604061224886828701612189565b9150509250925092565b6000806000806080858703121561226857600080fd5b6000612276878288016120e1565b9450506020612287878288016120e1565b935050604061229887828801612189565b925050606085013567ffffffffffffffff8111156122b557600080fd5b6122c187828801612135565b91505092959194509250565b600080604083850312156122e057600080fd5b60006122ee858286016120e1565b92505060206122ff858286016120f6565b9150509250929050565b6000806040838503121561231c57600080fd5b600061232a858286016120e1565b925050602061233b85828601612189565b9150509250929050565b60006020828403121561235757600080fd5b60006123658482850161210b565b91505092915050565b60006020828403121561238057600080fd5b600061238e84828501612120565b91505092915050565b6000602082840312156123a957600080fd5b600082013567ffffffffffffffff8111156123c357600080fd5b6123cf8482850161215f565b91505092915050565b6000602082840312156123ea57600080fd5b60006123f884828501612189565b91505092915050565b61240a81612c64565b82525050565b61241981612c76565b82525050565b600061242a82612b0c565b6124348185612b22565b9350612444818560208601612ce7565b61244d81612eb3565b840191505092915050565b600061246382612b17565b61246d8185612b33565b935061247d818560208601612ce7565b61248681612eb3565b840191505092915050565b600061249c82612b17565b6124a68185612b44565b93506124b6818560208601612ce7565b80840191505092915050565b600081546124cf81612d1a565b6124d98186612b44565b945060018216600081146124f4576001811461250557612538565b60ff19831686528186019350612538565b61250e85612af7565b60005b8381101561253057815481890152600182019150602081019050612511565b838801955050505b50505092915050565b600061254e603283612b33565b915061255982612ec4565b604082019050919050565b6000612571602683612b33565b915061257c82612f13565b604082019050919050565b6000612594602583612b33565b915061259f82612f62565b604082019050919050565b60006125b7601c83612b33565b91506125c282612fb1565b602082019050919050565b60006125da602483612b33565b91506125e582612fda565b604082019050919050565b60006125fd601983612b33565b915061260882613029565b602082019050919050565b6000612620601483612b33565b915061262b82613052565b602082019050919050565b6000612643602c83612b33565b915061264e8261307b565b604082019050919050565b6000612666603883612b33565b9150612671826130ca565b604082019050919050565b6000612689602a83612b33565b915061269482613119565b604082019050919050565b60006126ac602983612b33565b91506126b782613168565b604082019050919050565b60006126cf602083612b33565b91506126da826131b7565b602082019050919050565b60006126f2602c83612b33565b91506126fd826131e0565b604082019050919050565b6000612715602083612b33565b91506127208261322f565b602082019050919050565b6000612738602183612b33565b915061274382613258565b604082019050919050565b600061275b603183612b33565b9150612766826132a7565b604082019050919050565b61277a81612cce565b82525050565b600061278c8286612491565b91506127988285612491565b91506127a482846124c2565b9150819050949350505050565b60006020820190506127c66000830184612401565b92915050565b60006080820190506127e16000830187612401565b6127ee6020830186612401565b6127fb6040830185612771565b818103606083015261280d818461241f565b905095945050505050565b600060208201905061282d6000830184612410565b92915050565b6000602082019050818103600083015261284d8184612458565b905092915050565b6000602082019050818103600083015261286e81612541565b9050919050565b6000602082019050818103600083015261288e81612564565b9050919050565b600060208201905081810360008301526128ae81612587565b9050919050565b600060208201905081810360008301526128ce816125aa565b9050919050565b600060208201905081810360008301526128ee816125cd565b9050919050565b6000602082019050818103600083015261290e816125f0565b9050919050565b6000602082019050818103600083015261292e81612613565b9050919050565b6000602082019050818103600083015261294e81612636565b9050919050565b6000602082019050818103600083015261296e81612659565b9050919050565b6000602082019050818103600083015261298e8161267c565b9050919050565b600060208201905081810360008301526129ae8161269f565b9050919050565b600060208201905081810360008301526129ce816126c2565b9050919050565b600060208201905081810360008301526129ee816126e5565b9050919050565b60006020820190508181036000830152612a0e81612708565b9050919050565b60006020820190508181036000830152612a2e8161272b565b9050919050565b60006020820190508181036000830152612a4e8161274e565b9050919050565b6000602082019050612a6a6000830184612771565b92915050565b6000612a7a612a8b565b9050612a868282612d4c565b919050565b6000604051905090565b600067ffffffffffffffff821115612ab057612aaf612e84565b5b612ab982612eb3565b9050602081019050919050565b600067ffffffffffffffff821115612ae157612ae0612e84565b5b612aea82612eb3565b9050602081019050919050565b60008190508160005260206000209050919050565b600081519050919050565b600081519050919050565b600082825260208201905092915050565b600082825260208201905092915050565b600081905092915050565b6000612b5a82612cce565b9150612b6583612cce565b9250827fffffffffffffffffffffffffffffffffffffffffffffffffffffffffffffffff03821115612b9a57612b99612df7565b5b828201905092915050565b6000612bb082612cce565b9150612bbb83612cce565b925082612bcb57612bca612e26565b5b828204905092915050565b6000612be182612cce565b9150612bec83612cce565b9250817fffffffffffffffffffffffffffffffffffffffffffffffffffffffffffffffff0483118215151615612c2557612c24612df7565b5b828202905092915050565b6000612c3b82612cce565b9150612c4683612cce565b925082821015612c5957612c58612df7565b5b828203905092915050565b6000612c6f82612cae565b9050919050565b60008115159050919050565b60007fffffffff0000000000000000000000000000000000000000000000000000000082169050919050565b600073ffffffffffffffffffffffffffffffffffffffff82169050919050565b6000819050919050565b82818337600083830152505050565b60005b83811015612d05578082015181840152602081019050612cea565b83811115612d14576000848401525b50505050565b60006002820490506001821680612d3257607f821691505b60208210811415612d4657612d45612e55565b5b50919050565b612d5582612eb3565b810181811067ffffffffffffffff82111715612d7457612d73612e84565b5b80604052505050565b6000612d8882612cce565b91507fffffffffffffffffffffffffffffffffffffffffffffffffffffffffffffffff821415612dbb57612dba612df7565b5b600182019050919050565b6000612dd182612cce565b9150612ddc83612cce565b925082612dec57612deb612e26565b5b828206905092915050565b7f4e487b7100000000000000000000000000000000000000000000000000000000600052601160045260246000fd5b7f4e487b7100000000000000000000000000000000000000000000000000000000600052601260045260246000fd5b7f4e487b7100000000000000000000000000000000000000000000000000000000600052602260045260246000fd5b7f4e487b7100000000000000000000000000000000000000000000000000000000600052604160045260246000fd5b6000601f19601f8301169050919050565b7f4552433732313a207472616e7366657220746f206e6f6e20455243373231526560008201527f63656976657220696d706c656d656e7465720000000000000000000000000000602082015250565b7f4f776e61626c653a206e6577206f776e657220697320746865207a65726f206160008201527f6464726573730000000000000000000000000000000000000000000000000000602082015250565b7f4552433732313a207472616e736665722066726f6d20696e636f72726563742060008201527f6f776e6572000000000000000000000000000000000000000000000000000000602082015250565b7f4552433732313a20746f6b656e20616c7265616479206d696e74656400000000600082015250565b7f4552433732313a207472616e7366657220746f20746865207a65726f2061646460008201527f7265737300000000000000000000000000000000000000000000000000000000602082015250565b7f4552433732313a20617070726f766520746f2063616c6c657200000000000000600082015250565b7f546f6b656e20646f6573206e6f74206578697374000000000000000000000000600082015250565b7f4552433732313a206f70657261746f7220717565727920666f72206e6f6e657860008201527f697374656e7420746f6b656e0000000000000000000000000000000000000000602082015250565b7f4552433732313a20617070726f76652063616c6c6572206973206e6f74206f7760008201527f6e6572206e6f7220617070726f76656420666f7220616c6c0000000000000000602082015250565b7f4552433732313a2062616c616e636520717565727920666f7220746865207a6560008201527f726f206164647265737300000000000000000000000000000000000000000000602082015250565b7f4552433732313a206f776e657220717565727920666f72206e6f6e657869737460008201527f656e7420746f6b656e0000000000000000000000000000000000000000000000602082015250565b7f4552433732313a206d696e7420746f20746865207a65726f2061646472657373600082015250565b7f4552433732313a20617070726f76656420717565727920666f72206e6f6e657860008201527f697374656e7420746f6b656e0000000000000000000000000000000000000000602082015250565b7f4f776e61626c653a2063616c6c6572206973206e6f7420746865206f776e6572600082015250565b7f4552433732313a20617070726f76616c20746f2063757272656e74206f776e6560008201527f7200000000000000000000000000000000000000000000000000000000000000602082015250565b7f4552433732313a207472616e736665722063616c6c6572206973206e6f74206f60008201527f776e6572206e6f7220617070726f766564000000000000000000000000000000602082015250565b6132ff81612c64565b811461330a57600080fd5b50565b61331681612c76565b811461332157600080fd5b50565b61332d81612c82565b811461333857600080fd5b50565b61334481612cce565b811461334f57600080fd5b5056fea264697066735822122017337558178854b2f64203117410fb51b188fe588e10e9e1ec9a8430b280727364736f6c63430008040033",
  "linkReferences": {},
  "deployedLinkReferences": {}
}