{
  "_format": "hh-sol-artifact-1",
  "contractName": "InspiroNFT",
  "sourceName": "src/backend/contracts/InspiroNFT.sol",
  "abi": [
    {
      "inputs": [
        {
          "internalType": "string",
          "name": "_name",
          "type": "string"
        },
        {
          "internalType": "string",
          "name": "_symbol",
          "type": "string"
        },
        {
          "internalType": "string",
          "name": "_initBaseURI",
          "type": "string"
        },
        {
          "internalType": "uint256",
          "name": "_maxSupply",
          "type": "uint256"
        },
        {
          "internalType": "uint256",
          "name": "_mintPrice",
          "type": "uint256"
        }
      ],
      "stateMutability": "nonpayable",
      "type": "constructor"
    },
    {
      "anonymous": false,
      "inputs": [
        {
          "indexed": true,
          "internalType": "address",
          "name": "owner",
          "type": "address"
        },
        {
          "indexed": true,
          "internalType": "address",
          "name": "approved",
          "type": "address"
        },
        {
          "indexed": true,
          "internalType": "uint256",
          "name": "tokenId",
          "type": "uint256"
        }
      ],
      "name": "Approval",
      "type": "event"
    },
    {
      "anonymous": false,
      "inputs": [
        {
          "indexed": true,
          "internalType": "address",
          "name": "owner",
          "type": "address"
        },
        {
          "indexed": true,
          "internalType": "address",
          "name": "operator",
          "type": "address"
        },
        {
          "indexed": false,
          "internalType": "bool",
          "name": "approved",
          "type": "bool"
        }
      ],
      "name": "ApprovalForAll",
      "type": "event"
    },
    {
      "anonymous": false,
      "inputs": [
        {
          "indexed": true,
          "internalType": "address",
          "name": "to",
          "type": "address"
        },
        {
          "indexed": false,
          "internalType": "string",
          "name": "tokenURI",
          "type": "string"
        },
        {
          "indexed": false,
          "internalType": "uint16",
          "name": "tokenCount",
          "type": "uint16"
        }
      ],
      "name": "NFTMinted",
      "type": "event"
    },
    {
      "anonymous": false,
      "inputs": [
        {
          "indexed": true,
          "internalType": "address",
          "name": "previousOwner",
          "type": "address"
        },
        {
          "indexed": true,
          "internalType": "address",
          "name": "newOwner",
          "type": "address"
        }
      ],
      "name": "OwnershipTransferred",
      "type": "event"
    },
    {
      "anonymous": false,
      "inputs": [
        {
          "indexed": true,
          "internalType": "address",
          "name": "from",
          "type": "address"
        },
        {
          "indexed": true,
          "internalType": "address",
          "name": "to",
          "type": "address"
        },
        {
          "indexed": true,
          "internalType": "uint256",
          "name": "tokenId",
          "type": "uint256"
        }
      ],
      "name": "Transfer",
      "type": "event"
    },
    {
      "inputs": [
        {
          "internalType": "address",
          "name": "to",
          "type": "address"
        },
        {
          "internalType": "uint256",
          "name": "tokenId",
          "type": "uint256"
        }
      ],
      "name": "approve",
      "outputs": [],
      "stateMutability": "nonpayable",
      "type": "function"
    },
    {
      "inputs": [
        {
          "internalType": "address",
          "name": "owner",
          "type": "address"
        }
      ],
      "name": "balanceOf",
      "outputs": [
        {
          "internalType": "uint256",
          "name": "",
          "type": "uint256"
        }
      ],
      "stateMutability": "view",
      "type": "function"
    },
    {
      "inputs": [],
      "name": "baseExtension",
      "outputs": [
        {
          "internalType": "string",
          "name": "",
          "type": "string"
        }
      ],
      "stateMutability": "view",
      "type": "function"
    },
    {
      "inputs": [],
      "name": "baseURI",
      "outputs": [
        {
          "internalType": "string",
          "name": "",
          "type": "string"
        }
      ],
      "stateMutability": "view",
      "type": "function"
    },
    {
      "inputs": [
        {
          "internalType": "uint256",
          "name": "tokenId",
          "type": "uint256"
        }
      ],
      "name": "getApproved",
      "outputs": [
        {
          "internalType": "address",
          "name": "",
          "type": "address"
        }
      ],
      "stateMutability": "view",
      "type": "function"
    },
    {
      "inputs": [],
      "name": "getTokenCount",
      "outputs": [
        {
          "internalType": "uint256",
          "name": "",
          "type": "uint256"
        }
      ],
      "stateMutability": "view",
      "type": "function"
    },
    {
      "inputs": [
        {
          "internalType": "address",
          "name": "owner",
          "type": "address"
        },
        {
          "internalType": "address",
          "name": "operator",
          "type": "address"
        }
      ],
      "name": "isApprovedForAll",
      "outputs": [
        {
          "internalType": "bool",
          "name": "",
          "type": "bool"
        }
      ],
      "stateMutability": "view",
      "type": "function"
    },
    {
      "inputs": [],
      "name": "maxSupply",
      "outputs": [
        {
          "internalType": "uint256",
          "name": "",
          "type": "uint256"
        }
      ],
      "stateMutability": "view",
      "type": "function"
    },
    {
      "inputs": [
        {
          "internalType": "uint256",
          "name": "_mintAmount",
          "type": "uint256"
        }
      ],
      "name": "mint",
      "outputs": [],
      "stateMutability": "payable",
      "type": "function"
    },
    {
      "inputs": [],
      "name": "mintPrice",
      "outputs": [
        {
          "internalType": "uint256",
          "name": "",
          "type": "uint256"
        }
      ],
      "stateMutability": "view",
      "type": "function"
    },
    {
      "inputs": [
        {
          "internalType": "uint256",
          "name": "_tokenId",
          "type": "uint256"
        }
      ],
      "name": "mintTokenId",
      "outputs": [],
      "stateMutability": "payable",
      "type": "function"
    },
    {
      "inputs": [],
      "name": "name",
      "outputs": [
        {
          "internalType": "string",
          "name": "",
          "type": "string"
        }
      ],
      "stateMutability": "view",
      "type": "function"
    },
    {
      "inputs": [],
      "name": "owner",
      "outputs": [
        {
          "internalType": "address",
          "name": "",
          "type": "address"
        }
      ],
      "stateMutability": "view",
      "type": "function"
    },
    {
      "inputs": [
        {
          "internalType": "uint256",
          "name": "tokenId",
          "type": "uint256"
        }
      ],
      "name": "ownerOf",
      "outputs": [
        {
          "internalType": "address",
          "name": "",
          "type": "address"
        }
      ],
      "stateMutability": "view",
      "type": "function"
    },
    {
      "inputs": [],
      "name": "renounceOwnership",
      "outputs": [],
      "stateMutability": "nonpayable",
      "type": "function"
    },
    {
      "inputs": [
        {
          "internalType": "address",
          "name": "from",
          "type": "address"
        },
        {
          "internalType": "address",
          "name": "to",
          "type": "address"
        },
        {
          "internalType": "uint256",
          "name": "tokenId",
          "type": "uint256"
        }
      ],
      "name": "safeTransferFrom",
      "outputs": [],
      "stateMutability": "nonpayable",
      "type": "function"
    },
    {
      "inputs": [
        {
          "internalType": "address",
          "name": "from",
          "type": "address"
        },
        {
          "internalType": "address",
          "name": "to",
          "type": "address"
        },
        {
          "internalType": "uint256",
          "name": "tokenId",
          "type": "uint256"
        },
        {
          "internalType": "bytes",
          "name": "_data",
          "type": "bytes"
        }
      ],
      "name": "safeTransferFrom",
      "outputs": [],
      "stateMutability": "nonpayable",
      "type": "function"
    },
    {
      "inputs": [
        {
          "internalType": "address",
          "name": "operator",
          "type": "address"
        },
        {
          "internalType": "bool",
          "name": "approved",
          "type": "bool"
        }
      ],
      "name": "setApprovalForAll",
      "outputs": [],
      "stateMutability": "nonpayable",
      "type": "function"
    },
    {
      "inputs": [
        {
          "internalType": "string",
          "name": "_newBaseURI",
          "type": "string"
        }
      ],
      "name": "setBaseURI",
      "outputs": [],
      "stateMutability": "nonpayable",
      "type": "function"
    },
    {
      "inputs": [
        {
          "internalType": "bytes4",
          "name": "interfaceId",
          "type": "bytes4"
        }
      ],
      "name": "supportsInterface",
      "outputs": [
        {
          "internalType": "bool",
          "name": "",
          "type": "bool"
        }
      ],
      "stateMutability": "view",
      "type": "function"
    },
    {
      "inputs": [],
      "name": "symbol",
      "outputs": [
        {
          "internalType": "string",
          "name": "",
          "type": "string"
        }
      ],
      "stateMutability": "view",
      "type": "function"
    },
    {
      "inputs": [],
      "name": "tokenCount",
      "outputs": [
        {
          "internalType": "uint256",
          "name": "",
          "type": "uint256"
        }
      ],
      "stateMutability": "view",
      "type": "function"
    },
    {
      "inputs": [
        {
          "internalType": "uint256",
          "name": "_tokenId",
          "type": "uint256"
        }
      ],
      "name": "tokenURI",
      "outputs": [
        {
          "internalType": "string",
          "name": "",
          "type": "string"
        }
      ],
      "stateMutability": "view",
      "type": "function"
    },
    {
      "inputs": [
        {
          "internalType": "address",
          "name": "from",
          "type": "address"
        },
        {
          "internalType": "address",
          "name": "to",
          "type": "address"
        },
        {
          "internalType": "uint256",
          "name": "tokenId",
          "type": "uint256"
        }
      ],
      "name": "transferFrom",
      "outputs": [],
      "stateMutability": "nonpayable",
      "type": "function"
    },
    {
      "inputs": [
        {
          "internalType": "address",
          "name": "newOwner",
          "type": "address"
        }
      ],
      "name": "transferOwnership",
      "outputs": [],
      "stateMutability": "nonpayable",
      "type": "function"
    },
    {
      "inputs": [],
      "name": "withdrawEth",
      "outputs": [],
      "stateMutability": "nonpayable",
      "type": "function"
    }
  ],
  "bytecode": "0x60a06040526040518060400160405280600481526020017f2e6a706700000000000000000000000000000000000000000000000000000000815250600890805190602001906200005192919062000479565b503480156200005f57600080fd5b5060405162003e7438038062003e748339818101604052810190620000859190620005b2565b848481600090805190602001906200009f92919062000479565b508060019080519060200190620000b892919062000479565b505050620000db620000cf6200013b60201b60201c565b6200014360201b60201c565b816080818152505080600a8190555082600790805190602001906200010292919062000479565b50620001163360006200020960201b60201c565b600960008154809291906200012b906200088a565b91905055505050505050620009e2565b600033905090565b6000600660009054906101000a900473ffffffffffffffffffffffffffffffffffffffff16905081600660006101000a81548173ffffffffffffffffffffffffffffffffffffffff021916908373ffffffffffffffffffffffffffffffffffffffff1602179055508173ffffffffffffffffffffffffffffffffffffffff168173ffffffffffffffffffffffffffffffffffffffff167f8be0079c531659141344cd1fd0a4f28419497f9722a3daafe3b4186f6b6457e060405160405180910390a35050565b600073ffffffffffffffffffffffffffffffffffffffff168273ffffffffffffffffffffffffffffffffffffffff1614156200027c576040517f08c379a00000000000000000000000000000000000000000000000000000000081526004016200027390620006ef565b60405180910390fd5b6200028d816200040360201b60201c565b15620002d0576040517f08c379a0000000000000000000000000000000000000000000000000000000008152600401620002c790620006cd565b60405180910390fd5b620002e4600083836200046f60201b60201c565b6001600360008473ffffffffffffffffffffffffffffffffffffffff1673ffffffffffffffffffffffffffffffffffffffff168152602001908152602001600020600082825462000336919062000781565b92505081905550816002600083815260200190815260200160002060006101000a81548173ffffffffffffffffffffffffffffffffffffffff021916908373ffffffffffffffffffffffffffffffffffffffff160217905550808273ffffffffffffffffffffffffffffffffffffffff16600073ffffffffffffffffffffffffffffffffffffffff167fddf252ad1be2c89b69c2b068fc378daa952ba7f163c4a11628f55a4df523b3ef60405160405180910390a4620003ff600083836200047460201b60201c565b5050565b60008073ffffffffffffffffffffffffffffffffffffffff166002600084815260200190815260200160002060009054906101000a900473ffffffffffffffffffffffffffffffffffffffff1673ffffffffffffffffffffffffffffffffffffffff1614159050919050565b505050565b505050565b82805462000487906200081e565b90600052602060002090601f016020900481019282620004ab5760008555620004f7565b82601f10620004c657805160ff1916838001178555620004f7565b82800160010185558215620004f7579182015b82811115620004f6578251825591602001919060010190620004d9565b5b5090506200050691906200050a565b5090565b5b80821115620005255760008160009055506001016200050b565b5090565b6000620005406200053a846200073a565b62000711565b9050828152602081018484840111156200055957600080fd5b62000566848285620007e8565b509392505050565b600082601f8301126200058057600080fd5b81516200059284826020860162000529565b91505092915050565b600081519050620005ac81620009c8565b92915050565b600080600080600060a08688031215620005cb57600080fd5b600086015167ffffffffffffffff811115620005e657600080fd5b620005f4888289016200056e565b955050602086015167ffffffffffffffff8111156200061257600080fd5b62000620888289016200056e565b945050604086015167ffffffffffffffff8111156200063e57600080fd5b6200064c888289016200056e565b93505060606200065f888289016200059b565b925050608062000672888289016200059b565b9150509295509295909350565b60006200068e601c8362000770565b91506200069b8262000976565b602082019050919050565b6000620006b560208362000770565b9150620006c2826200099f565b602082019050919050565b60006020820190508181036000830152620006e8816200067f565b9050919050565b600060208201905081810360008301526200070a81620006a6565b9050919050565b60006200071d62000730565b90506200072b828262000854565b919050565b6000604051905090565b600067ffffffffffffffff82111562000758576200075762000936565b5b620007638262000965565b9050602081019050919050565b600082825260208201905092915050565b60006200078e82620007de565b91506200079b83620007de565b9250827fffffffffffffffffffffffffffffffffffffffffffffffffffffffffffffffff03821115620007d357620007d2620008d8565b5b828201905092915050565b6000819050919050565b60005b8381101562000808578082015181840152602081019050620007eb565b8381111562000818576000848401525b50505050565b600060028204905060018216806200083757607f821691505b602082108114156200084e576200084d62000907565b5b50919050565b6200085f8262000965565b810181811067ffffffffffffffff8211171562000881576200088062000936565b5b80604052505050565b60006200089782620007de565b91507fffffffffffffffffffffffffffffffffffffffffffffffffffffffffffffffff821415620008cd57620008cc620008d8565b5b600182019050919050565b7f4e487b7100000000000000000000000000000000000000000000000000000000600052601160045260246000fd5b7f4e487b7100000000000000000000000000000000000000000000000000000000600052602260045260246000fd5b7f4e487b7100000000000000000000000000000000000000000000000000000000600052604160045260246000fd5b6000601f19601f8301169050919050565b7f4552433732313a20746f6b656e20616c7265616479206d696e74656400000000600082015250565b7f4552433732313a206d696e7420746f20746865207a65726f2061646472657373600082015250565b620009d381620007de565b8114620009df57600080fd5b50565b60805161346862000a0c6000396000818161096f01528181610df2015261110d01526134686000f3fe6080604052600436106101815760003560e01c806378a89567116100d1578063a22cb4651161008a578063c87b56dd11610064578063c87b56dd1461052e578063d5abeb011461056b578063e985e9c514610596578063f2fde38b146105d357610181565b8063a22cb465146104b1578063b88d4fde146104da578063c66828621461050357610181565b806378a89567146103d25780638da5cb5b146103fd57806395d89b41146104285780639f181b5e14610453578063a0712d681461047e578063a0ef91df1461049a57610181565b806342842e0e1161013e5780636817c76c116101185780636817c76c146103285780636c0360eb1461035357806370a082311461037e578063715018a6146103bb57610181565b806342842e0e1461029957806355f804b3146102c25780636352211e146102eb57610181565b806301ffc9a71461018657806306fdde03146101c3578063081812fc146101ee578063095ea7b31461022b57806323b872dd146102545780632429467b1461027d575b600080fd5b34801561019257600080fd5b506101ad60048036038101906101a891906123ff565b6105fc565b6040516101ba91906128d2565b60405180910390f35b3480156101cf57600080fd5b506101d86106de565b6040516101e591906128ed565b60405180910390f35b3480156101fa57600080fd5b5061021560048036038101906102109190612492565b610770565b604051610222919061286b565b60405180910390f35b34801561023757600080fd5b50610252600480360381019061024d91906123c3565b6107f5565b005b34801561026057600080fd5b5061027b600480360381019061027691906122bd565b61090d565b005b61029760048036038101906102929190612492565b61096d565b005b3480156102a557600080fd5b506102c060048036038101906102bb91906122bd565b6109db565b005b3480156102ce57600080fd5b506102e960048036038101906102e49190612451565b6109fb565b005b3480156102f757600080fd5b50610312600480360381019061030d9190612492565b610a91565b60405161031f919061286b565b60405180910390f35b34801561033457600080fd5b5061033d610b43565b60405161034a9190612b0f565b60405180910390f35b34801561035f57600080fd5b50610368610b49565b60405161037591906128ed565b60405180910390f35b34801561038a57600080fd5b506103a560048036038101906103a09190612258565b610bd7565b6040516103b29190612b0f565b60405180910390f35b3480156103c757600080fd5b506103d0610c8f565b005b3480156103de57600080fd5b506103e7610d17565b6040516103f49190612b0f565b60405180910390f35b34801561040957600080fd5b50610412610d21565b60405161041f919061286b565b60405180910390f35b34801561043457600080fd5b5061043d610d4b565b60405161044a91906128ed565b60405180910390f35b34801561045f57600080fd5b50610468610ddd565b6040516104759190612b0f565b60405180910390f35b61049860048036038101906104939190612492565b610de3565b005b3480156104a657600080fd5b506104af610e96565b005b3480156104bd57600080fd5b506104d860048036038101906104d39190612387565b610f5b565b005b3480156104e657600080fd5b5061050160048036038101906104fc919061230c565b610f71565b005b34801561050f57600080fd5b50610518610fd3565b60405161052591906128ed565b60405180910390f35b34801561053a57600080fd5b5061055560048036038101906105509190612492565b611061565b60405161056291906128ed565b60405180910390f35b34801561057757600080fd5b5061058061110b565b60405161058d9190612b0f565b60405180910390f35b3480156105a257600080fd5b506105bd60048036038101906105b89190612281565b61112f565b6040516105ca91906128d2565b60405180910390f35b3480156105df57600080fd5b506105fa60048036038101906105f59190612258565b6111c3565b005b60007f80ac58cd000000000000000000000000000000000000000000000000000000007bffffffffffffffffffffffffffffffffffffffffffffffffffffffff1916827bffffffffffffffffffffffffffffffffffffffffffffffffffffffff191614806106c757507f5b5e139f000000000000000000000000000000000000000000000000000000007bffffffffffffffffffffffffffffffffffffffffffffffffffffffff1916827bffffffffffffffffffffffffffffffffffffffffffffffffffffffff1916145b806106d757506106d6826112bb565b5b9050919050565b6060600080546106ed90612dd4565b80601f016020809104026020016040519081016040528092919081815260200182805461071990612dd4565b80156107665780601f1061073b57610100808354040283529160200191610766565b820191906000526020600020905b81548152906001019060200180831161074957829003601f168201915b5050505050905090565b600061077b82611325565b6107ba576040517f08c379a00000000000000000000000000000000000000000000000000000000081526004016107b190612a6f565b60405180910390fd5b6004600083815260200190815260200160002060009054906101000a900473ffffffffffffffffffffffffffffffffffffffff169050919050565b600061080082610a91565b90508073ffffffffffffffffffffffffffffffffffffffff168373ffffffffffffffffffffffffffffffffffffffff161415610871576040517f08c379a000000000000000000000000000000000000000000000000000000000815260040161086890612acf565b60405180910390fd5b8073ffffffffffffffffffffffffffffffffffffffff16610890611391565b73ffffffffffffffffffffffffffffffffffffffff1614806108bf57506108be816108b9611391565b61112f565b5b6108fe576040517f08c379a00000000000000000000000000000000000000000000000000000000081526004016108f5906129ef565b60405180910390fd5b6109088383611399565b505050565b61091e610918611391565b82611452565b61095d576040517f08c379a000000000000000000000000000000000000000000000000000000000815260040161095490612aef565b60405180910390fd5b610968838383611530565b505050565b7f00000000000000000000000000000000000000000000000000000000000000006009541061099b57600080fd5b6002600a546109aa9190612c90565b3410156109b657600080fd5b6109c03382611797565b600960008154809291906109d390612e37565b919050555050565b6109f683838360405180602001604052806000815250610f71565b505050565b610a03611391565b73ffffffffffffffffffffffffffffffffffffffff16610a21610d21565b73ffffffffffffffffffffffffffffffffffffffff1614610a77576040517f08c379a0000000000000000000000000000000000000000000000000000000008152600401610a6e90612a8f565b60405180910390fd5b8060079080519060200190610a8d92919061207c565b5050565b6000806002600084815260200190815260200160002060009054906101000a900473ffffffffffffffffffffffffffffffffffffffff169050600073ffffffffffffffffffffffffffffffffffffffff168173ffffffffffffffffffffffffffffffffffffffff161415610b3a576040517f08c379a0000000000000000000000000000000000000000000000000000000008152600401610b3190612a2f565b60405180910390fd5b80915050919050565b600a5481565b60078054610b5690612dd4565b80601f0160208091040260200160405190810160405280929190818152602001828054610b8290612dd4565b8015610bcf5780601f10610ba457610100808354040283529160200191610bcf565b820191906000526020600020905b815481529060010190602001808311610bb257829003601f168201915b505050505081565b60008073ffffffffffffffffffffffffffffffffffffffff168273ffffffffffffffffffffffffffffffffffffffff161415610c48576040517f08c379a0000000000000000000000000000000000000000000000000000000008152600401610c3f90612a0f565b60405180910390fd5b600360008373ffffffffffffffffffffffffffffffffffffffff1673ffffffffffffffffffffffffffffffffffffffff168152602001908152602001600020549050919050565b610c97611391565b73ffffffffffffffffffffffffffffffffffffffff16610cb5610d21565b73ffffffffffffffffffffffffffffffffffffffff1614610d0b576040517f08c379a0000000000000000000000000000000000000000000000000000000008152600401610d0290612a8f565b60405180910390fd5b610d1560006117b5565b565b6000600954905090565b6000600660009054906101000a900473ffffffffffffffffffffffffffffffffffffffff16905090565b606060018054610d5a90612dd4565b80601f0160208091040260200160405190810160405280929190818152602001828054610d8690612dd4565b8015610dd35780601f10610da857610100808354040283529160200191610dd3565b820191906000526020600020905b815481529060010190602001808311610db657829003601f168201915b5050505050905090565b60095481565b60008111610df057600080fd5b7f000000000000000000000000000000000000000000000000000000000000000081600954610e1f9190612c09565b1115610e2a57600080fd5b80600a54610e389190612c90565b341015610e4457600080fd5b60005b81811015610e7957610e663382600954610e619190612c09565b611797565b8080610e7190612e37565b915050610e47565b508060096000828254610e8c9190612c09565b9250508190555050565b610e9e611391565b73ffffffffffffffffffffffffffffffffffffffff16610ebc610d21565b73ffffffffffffffffffffffffffffffffffffffff1614610f12576040517f08c379a0000000000000000000000000000000000000000000000000000000008152600401610f0990612a8f565b60405180910390fd5b3373ffffffffffffffffffffffffffffffffffffffff166108fc479081150290604051600060405180830381858888f19350505050158015610f58573d6000803e3d6000fd5b50565b610f6d610f66611391565b838361187b565b5050565b610f82610f7c611391565b83611452565b610fc1576040517f08c379a0000000000000000000000000000000000000000000000000000000008152600401610fb890612aef565b60405180910390fd5b610fcd848484846119e8565b50505050565b60088054610fe090612dd4565b80601f016020809104026020016040519081016040528092919081815260200182805461100c90612dd4565b80156110595780601f1061102e57610100808354040283529160200191611059565b820191906000526020600020905b81548152906001019060200180831161103c57829003601f168201915b505050505081565b606061106c82611325565b6110ab576040517f08c379a00000000000000000000000000000000000000000000000000000000081526004016110a290612aaf565b60405180910390fd5b60006110b5611a44565b905060008151116110d55760405180602001604052806000815250611103565b806110df84611ad6565b60086040516020016110f39392919061283a565b6040516020818303038152906040525b915050919050565b7f000000000000000000000000000000000000000000000000000000000000000081565b6000600560008473ffffffffffffffffffffffffffffffffffffffff1673ffffffffffffffffffffffffffffffffffffffff16815260200190815260200160002060008373ffffffffffffffffffffffffffffffffffffffff1673ffffffffffffffffffffffffffffffffffffffff16815260200190815260200160002060009054906101000a900460ff16905092915050565b6111cb611391565b73ffffffffffffffffffffffffffffffffffffffff166111e9610d21565b73ffffffffffffffffffffffffffffffffffffffff161461123f576040517f08c379a000000000000000000000000000000000000000000000000000000000815260040161123690612a8f565b60405180910390fd5b600073ffffffffffffffffffffffffffffffffffffffff168173ffffffffffffffffffffffffffffffffffffffff1614156112af576040517f08c379a00000000000000000000000000000000000000000000000000000000081526004016112a69061292f565b60405180910390fd5b6112b8816117b5565b50565b60007f01ffc9a7000000000000000000000000000000000000000000000000000000007bffffffffffffffffffffffffffffffffffffffffffffffffffffffff1916827bffffffffffffffffffffffffffffffffffffffffffffffffffffffff1916149050919050565b60008073ffffffffffffffffffffffffffffffffffffffff166002600084815260200190815260200160002060009054906101000a900473ffffffffffffffffffffffffffffffffffffffff1673ffffffffffffffffffffffffffffffffffffffff1614159050919050565b600033905090565b816004600083815260200190815260200160002060006101000a81548173ffffffffffffffffffffffffffffffffffffffff021916908373ffffffffffffffffffffffffffffffffffffffff160217905550808273ffffffffffffffffffffffffffffffffffffffff1661140c83610a91565b73ffffffffffffffffffffffffffffffffffffffff167f8c5be1e5ebec7d5bd14f71427d1e84f3dd0314c0f7b2291e5b200ac8c7c3b92560405160405180910390a45050565b600061145d82611325565b61149c576040517f08c379a0000000000000000000000000000000000000000000000000000000008152600401611493906129cf565b60405180910390fd5b60006114a783610a91565b90508073ffffffffffffffffffffffffffffffffffffffff168473ffffffffffffffffffffffffffffffffffffffff16148061151657508373ffffffffffffffffffffffffffffffffffffffff166114fe84610770565b73ffffffffffffffffffffffffffffffffffffffff16145b806115275750611526818561112f565b5b91505092915050565b8273ffffffffffffffffffffffffffffffffffffffff1661155082610a91565b73ffffffffffffffffffffffffffffffffffffffff16146115a6576040517f08c379a000000000000000000000000000000000000000000000000000000000815260040161159d9061294f565b60405180910390fd5b600073ffffffffffffffffffffffffffffffffffffffff168273ffffffffffffffffffffffffffffffffffffffff161415611616576040517f08c379a000000000000000000000000000000000000000000000000000000000815260040161160d9061298f565b60405180910390fd5b611621838383611c83565b61162c600082611399565b6001600360008573ffffffffffffffffffffffffffffffffffffffff1673ffffffffffffffffffffffffffffffffffffffff168152602001908152602001600020600082825461167c9190612cea565b925050819055506001600360008473ffffffffffffffffffffffffffffffffffffffff1673ffffffffffffffffffffffffffffffffffffffff16815260200190815260200160002060008282546116d39190612c09565b92505081905550816002600083815260200190815260200160002060006101000a81548173ffffffffffffffffffffffffffffffffffffffff021916908373ffffffffffffffffffffffffffffffffffffffff160217905550808273ffffffffffffffffffffffffffffffffffffffff168473ffffffffffffffffffffffffffffffffffffffff167fddf252ad1be2c89b69c2b068fc378daa952ba7f163c4a11628f55a4df523b3ef60405160405180910390a4611792838383611c88565b505050565b6117b1828260405180602001604052806000815250611c8d565b5050565b6000600660009054906101000a900473ffffffffffffffffffffffffffffffffffffffff16905081600660006101000a81548173ffffffffffffffffffffffffffffffffffffffff021916908373ffffffffffffffffffffffffffffffffffffffff1602179055508173ffffffffffffffffffffffffffffffffffffffff168173ffffffffffffffffffffffffffffffffffffffff167f8be0079c531659141344cd1fd0a4f28419497f9722a3daafe3b4186f6b6457e060405160405180910390a35050565b8173ffffffffffffffffffffffffffffffffffffffff168373ffffffffffffffffffffffffffffffffffffffff1614156118ea576040517f08c379a00000000000000000000000000000000000000000000000000000000081526004016118e1906129af565b60405180910390fd5b80600560008573ffffffffffffffffffffffffffffffffffffffff1673ffffffffffffffffffffffffffffffffffffffff16815260200190815260200160002060008473ffffffffffffffffffffffffffffffffffffffff1673ffffffffffffffffffffffffffffffffffffffff16815260200190815260200160002060006101000a81548160ff0219169083151502179055508173ffffffffffffffffffffffffffffffffffffffff168373ffffffffffffffffffffffffffffffffffffffff167f17307eab39ab6107e8899845ad3d59bd9653f200f220920489ca2b5937696c31836040516119db91906128d2565b60405180910390a3505050565b6119f3848484611530565b6119ff84848484611ce8565b611a3e576040517f08c379a0000000000000000000000000000000000000000000000000000000008152600401611a359061290f565b60405180910390fd5b50505050565b606060078054611a5390612dd4565b80601f0160208091040260200160405190810160405280929190818152602001828054611a7f90612dd4565b8015611acc5780601f10611aa157610100808354040283529160200191611acc565b820191906000526020600020905b815481529060010190602001808311611aaf57829003601f168201915b5050505050905090565b60606000821415611b1e576040518060400160405280600181526020017f30000000000000000000000000000000000000000000000000000000000000008152509050611c7e565b600082905060005b60008214611b50578080611b3990612e37565b915050600a82611b499190612c5f565b9150611b26565b60008167ffffffffffffffff811115611b92577f4e487b7100000000000000000000000000000000000000000000000000000000600052604160045260246000fd5b6040519080825280601f01601f191660200182016040528015611bc45781602001600182028036833780820191505090505b5090505b60008514611c7757600182611bdd9190612cea565b9150600a85611bec9190612e80565b6030611bf89190612c09565b60f81b818381518110611c34577f4e487b7100000000000000000000000000000000000000000000000000000000600052603260045260246000fd5b60200101907effffffffffffffffffffffffffffffffffffffffffffffffffffffffffffff1916908160001a905350600a85611c709190612c5f565b9450611bc8565b8093505050505b919050565b505050565b505050565b611c978383611e7f565b611ca46000848484611ce8565b611ce3576040517f08c379a0000000000000000000000000000000000000000000000000000000008152600401611cda9061290f565b60405180910390fd5b505050565b6000611d098473ffffffffffffffffffffffffffffffffffffffff16612059565b15611e72578373ffffffffffffffffffffffffffffffffffffffff1663150b7a02611d32611391565b8786866040518563ffffffff1660e01b8152600401611d549493929190612886565b602060405180830381600087803b158015611d6e57600080fd5b505af1925050508015611d9f57506040513d601f19601f82011682018060405250810190611d9c9190612428565b60015b611e22573d8060008114611dcf576040519150601f19603f3d011682016040523d82523d6000602084013e611dd4565b606091505b50600081511415611e1a576040517f08c379a0000000000000000000000000000000000000000000000000000000008152600401611e119061290f565b60405180910390fd5b805181602001fd5b63150b7a0260e01b7bffffffffffffffffffffffffffffffffffffffffffffffffffffffff1916817bffffffffffffffffffffffffffffffffffffffffffffffffffffffff191614915050611e77565b600190505b949350505050565b600073ffffffffffffffffffffffffffffffffffffffff168273ffffffffffffffffffffffffffffffffffffffff161415611eef576040517f08c379a0000000000000000000000000000000000000000000000000000000008152600401611ee690612a4f565b60405180910390fd5b611ef881611325565b15611f38576040517f08c379a0000000000000000000000000000000000000000000000000000000008152600401611f2f9061296f565b60405180910390fd5b611f4460008383611c83565b6001600360008473ffffffffffffffffffffffffffffffffffffffff1673ffffffffffffffffffffffffffffffffffffffff1681526020019081526020016000206000828254611f949190612c09565b92505081905550816002600083815260200190815260200160002060006101000a81548173ffffffffffffffffffffffffffffffffffffffff021916908373ffffffffffffffffffffffffffffffffffffffff160217905550808273ffffffffffffffffffffffffffffffffffffffff16600073ffffffffffffffffffffffffffffffffffffffff167fddf252ad1be2c89b69c2b068fc378daa952ba7f163c4a11628f55a4df523b3ef60405160405180910390a461205560008383611c88565b5050565b6000808273ffffffffffffffffffffffffffffffffffffffff163b119050919050565b82805461208890612dd4565b90600052602060002090601f0160209004810192826120aa57600085556120f1565b82601f106120c357805160ff19168380011785556120f1565b828001600101855582156120f1579182015b828111156120f05782518255916020019190600101906120d5565b5b5090506120fe9190612102565b5090565b5b8082111561211b576000816000905550600101612103565b5090565b600061213261212d84612b4f565b612b2a565b90508281526020810184848401111561214a57600080fd5b612155848285612d92565b509392505050565b600061217061216b84612b80565b612b2a565b90508281526020810184848401111561218857600080fd5b612193848285612d92565b509392505050565b6000813590506121aa816133d6565b92915050565b6000813590506121bf816133ed565b92915050565b6000813590506121d481613404565b92915050565b6000815190506121e981613404565b92915050565b600082601f83011261220057600080fd5b813561221084826020860161211f565b91505092915050565b600082601f83011261222a57600080fd5b813561223a84826020860161215d565b91505092915050565b6000813590506122528161341b565b92915050565b60006020828403121561226a57600080fd5b60006122788482850161219b565b91505092915050565b6000806040838503121561229457600080fd5b60006122a28582860161219b565b92505060206122b38582860161219b565b9150509250929050565b6000806000606084860312156122d257600080fd5b60006122e08682870161219b565b93505060206122f18682870161219b565b925050604061230286828701612243565b9150509250925092565b6000806000806080858703121561232257600080fd5b60006123308782880161219b565b94505060206123418782880161219b565b935050604061235287828801612243565b925050606085013567ffffffffffffffff81111561236f57600080fd5b61237b878288016121ef565b91505092959194509250565b6000806040838503121561239a57600080fd5b60006123a88582860161219b565b92505060206123b9858286016121b0565b9150509250929050565b600080604083850312156123d657600080fd5b60006123e48582860161219b565b92505060206123f585828601612243565b9150509250929050565b60006020828403121561241157600080fd5b600061241f848285016121c5565b91505092915050565b60006020828403121561243a57600080fd5b6000612448848285016121da565b91505092915050565b60006020828403121561246357600080fd5b600082013567ffffffffffffffff81111561247d57600080fd5b61248984828501612219565b91505092915050565b6000602082840312156124a457600080fd5b60006124b284828501612243565b91505092915050565b6124c481612d1e565b82525050565b6124d381612d30565b82525050565b60006124e482612bc6565b6124ee8185612bdc565b93506124fe818560208601612da1565b61250781612f6d565b840191505092915050565b600061251d82612bd1565b6125278185612bed565b9350612537818560208601612da1565b61254081612f6d565b840191505092915050565b600061255682612bd1565b6125608185612bfe565b9350612570818560208601612da1565b80840191505092915050565b6000815461258981612dd4565b6125938186612bfe565b945060018216600081146125ae57600181146125bf576125f2565b60ff198316865281860193506125f2565b6125c885612bb1565b60005b838110156125ea578154818901526001820191506020810190506125cb565b838801955050505b50505092915050565b6000612608603283612bed565b915061261382612f7e565b604082019050919050565b600061262b602683612bed565b915061263682612fcd565b604082019050919050565b600061264e602583612bed565b91506126598261301c565b604082019050919050565b6000612671601c83612bed565b915061267c8261306b565b602082019050919050565b6000612694602483612bed565b915061269f82613094565b604082019050919050565b60006126b7601983612bed565b91506126c2826130e3565b602082019050919050565b60006126da602c83612bed565b91506126e58261310c565b604082019050919050565b60006126fd603883612bed565b91506127088261315b565b604082019050919050565b6000612720602a83612bed565b915061272b826131aa565b604082019050919050565b6000612743602983612bed565b915061274e826131f9565b604082019050919050565b6000612766602083612bed565b915061277182613248565b602082019050919050565b6000612789602c83612bed565b915061279482613271565b604082019050919050565b60006127ac602083612bed565b91506127b7826132c0565b602082019050919050565b60006127cf602f83612bed565b91506127da826132e9565b604082019050919050565b60006127f2602183612bed565b91506127fd82613338565b604082019050919050565b6000612815603183612bed565b915061282082613387565b604082019050919050565b61283481612d88565b82525050565b6000612846828661254b565b9150612852828561254b565b915061285e828461257c565b9150819050949350505050565b600060208201905061288060008301846124bb565b92915050565b600060808201905061289b60008301876124bb565b6128a860208301866124bb565b6128b5604083018561282b565b81810360608301526128c781846124d9565b905095945050505050565b60006020820190506128e760008301846124ca565b92915050565b600060208201905081810360008301526129078184612512565b905092915050565b60006020820190508181036000830152612928816125fb565b9050919050565b600060208201905081810360008301526129488161261e565b9050919050565b6000602082019050818103600083015261296881612641565b9050919050565b6000602082019050818103600083015261298881612664565b9050919050565b600060208201905081810360008301526129a881612687565b9050919050565b600060208201905081810360008301526129c8816126aa565b9050919050565b600060208201905081810360008301526129e8816126cd565b9050919050565b60006020820190508181036000830152612a08816126f0565b9050919050565b60006020820190508181036000830152612a2881612713565b9050919050565b60006020820190508181036000830152612a4881612736565b9050919050565b60006020820190508181036000830152612a6881612759565b9050919050565b60006020820190508181036000830152612a888161277c565b9050919050565b60006020820190508181036000830152612aa88161279f565b9050919050565b60006020820190508181036000830152612ac8816127c2565b9050919050565b60006020820190508181036000830152612ae8816127e5565b9050919050565b60006020820190508181036000830152612b0881612808565b9050919050565b6000602082019050612b24600083018461282b565b92915050565b6000612b34612b45565b9050612b408282612e06565b919050565b6000604051905090565b600067ffffffffffffffff821115612b6a57612b69612f3e565b5b612b7382612f6d565b9050602081019050919050565b600067ffffffffffffffff821115612b9b57612b9a612f3e565b5b612ba482612f6d565b9050602081019050919050565b60008190508160005260206000209050919050565b600081519050919050565b600081519050919050565b600082825260208201905092915050565b600082825260208201905092915050565b600081905092915050565b6000612c1482612d88565b9150612c1f83612d88565b9250827fffffffffffffffffffffffffffffffffffffffffffffffffffffffffffffffff03821115612c5457612c53612eb1565b5b828201905092915050565b6000612c6a82612d88565b9150612c7583612d88565b925082612c8557612c84612ee0565b5b828204905092915050565b6000612c9b82612d88565b9150612ca683612d88565b9250817fffffffffffffffffffffffffffffffffffffffffffffffffffffffffffffffff0483118215151615612cdf57612cde612eb1565b5b828202905092915050565b6000612cf582612d88565b9150612d0083612d88565b925082821015612d1357612d12612eb1565b5b828203905092915050565b6000612d2982612d68565b9050919050565b60008115159050919050565b60007fffffffff0000000000000000000000000000000000000000000000000000000082169050919050565b600073ffffffffffffffffffffffffffffffffffffffff82169050919050565b6000819050919050565b82818337600083830152505050565b60005b83811015612dbf578082015181840152602081019050612da4565b83811115612dce576000848401525b50505050565b60006002820490506001821680612dec57607f821691505b60208210811415612e0057612dff612f0f565b5b50919050565b612e0f82612f6d565b810181811067ffffffffffffffff82111715612e2e57612e2d612f3e565b5b80604052505050565b6000612e4282612d88565b91507fffffffffffffffffffffffffffffffffffffffffffffffffffffffffffffffff821415612e7557612e74612eb1565b5b600182019050919050565b6000612e8b82612d88565b9150612e9683612d88565b925082612ea657612ea5612ee0565b5b828206905092915050565b7f4e487b7100000000000000000000000000000000000000000000000000000000600052601160045260246000fd5b7f4e487b7100000000000000000000000000000000000000000000000000000000600052601260045260246000fd5b7f4e487b7100000000000000000000000000000000000000000000000000000000600052602260045260246000fd5b7f4e487b7100000000000000000000000000000000000000000000000000000000600052604160045260246000fd5b6000601f19601f8301169050919050565b7f4552433732313a207472616e7366657220746f206e6f6e20455243373231526560008201527f63656976657220696d706c656d656e7465720000000000000000000000000000602082015250565b7f4f776e61626c653a206e6577206f776e657220697320746865207a65726f206160008201527f6464726573730000000000000000000000000000000000000000000000000000602082015250565b7f4552433732313a207472616e736665722066726f6d20696e636f72726563742060008201527f6f776e6572000000000000000000000000000000000000000000000000000000602082015250565b7f4552433732313a20746f6b656e20616c7265616479206d696e74656400000000600082015250565b7f4552433732313a207472616e7366657220746f20746865207a65726f2061646460008201527f7265737300000000000000000000000000000000000000000000000000000000602082015250565b7f4552433732313a20617070726f766520746f2063616c6c657200000000000000600082015250565b7f4552433732313a206f70657261746f7220717565727920666f72206e6f6e657860008201527f697374656e7420746f6b656e0000000000000000000000000000000000000000602082015250565b7f4552433732313a20617070726f76652063616c6c6572206973206e6f74206f7760008201527f6e6572206e6f7220617070726f76656420666f7220616c6c0000000000000000602082015250565b7f4552433732313a2062616c616e636520717565727920666f7220746865207a6560008201527f726f206164647265737300000000000000000000000000000000000000000000602082015250565b7f4552433732313a206f776e657220717565727920666f72206e6f6e657869737460008201527f656e7420746f6b656e0000000000000000000000000000000000000000000000602082015250565b7f4552433732313a206d696e7420746f20746865207a65726f2061646472657373600082015250565b7f4552433732313a20617070726f76656420717565727920666f72206e6f6e657860008201527f697374656e7420746f6b656e0000000000000000000000000000000000000000602082015250565b7f4f776e61626c653a2063616c6c6572206973206e6f7420746865206f776e6572600082015250565b7f4552433732314d657461646174613a2055524920717565727920666f72206e6f60008201527f6e6578697374656e7420746f6b656e0000000000000000000000000000000000602082015250565b7f4552433732313a20617070726f76616c20746f2063757272656e74206f776e6560008201527f7200000000000000000000000000000000000000000000000000000000000000602082015250565b7f4552433732313a207472616e736665722063616c6c6572206973206e6f74206f60008201527f776e6572206e6f7220617070726f766564000000000000000000000000000000602082015250565b6133df81612d1e565b81146133ea57600080fd5b50565b6133f681612d30565b811461340157600080fd5b50565b61340d81612d3c565b811461341857600080fd5b50565b61342481612d88565b811461342f57600080fd5b5056fea26469706673582212201369dfba57a010b2fe73786926936b1e9a28386aff9cd786e5eef07c3ab53e3064736f6c63430008040033",
  "linkReferences": {},
  "deployedLinkReferences": {}
}