{
  "_format": "hh-sol-artifact-1",
  "contractName": "InspiroNFT",
  "sourceName": "src/backend/contracts/InspiroNFT.sol",
  "abi": [
    {
      "inputs": [
        {
          "internalType": "string",
          "name": "_name",
          "type": "string"
        },
        {
          "internalType": "string",
          "name": "_symbol",
          "type": "string"
        },
        {
          "internalType": "string",
          "name": "_initBaseURI",
          "type": "string"
        },
        {
          "internalType": "uint256",
          "name": "_maxSupply",
          "type": "uint256"
        },
        {
          "internalType": "uint256",
          "name": "_mintPrice",
          "type": "uint256"
        }
      ],
      "stateMutability": "nonpayable",
      "type": "constructor"
    },
    {
      "anonymous": false,
      "inputs": [
        {
          "indexed": true,
          "internalType": "address",
          "name": "owner",
          "type": "address"
        },
        {
          "indexed": true,
          "internalType": "address",
          "name": "approved",
          "type": "address"
        },
        {
          "indexed": true,
          "internalType": "uint256",
          "name": "tokenId",
          "type": "uint256"
        }
      ],
      "name": "Approval",
      "type": "event"
    },
    {
      "anonymous": false,
      "inputs": [
        {
          "indexed": true,
          "internalType": "address",
          "name": "owner",
          "type": "address"
        },
        {
          "indexed": true,
          "internalType": "address",
          "name": "operator",
          "type": "address"
        },
        {
          "indexed": false,
          "internalType": "bool",
          "name": "approved",
          "type": "bool"
        }
      ],
      "name": "ApprovalForAll",
      "type": "event"
    },
    {
      "anonymous": false,
      "inputs": [
        {
          "indexed": true,
          "internalType": "address",
          "name": "to",
          "type": "address"
        },
        {
          "indexed": false,
          "internalType": "string",
          "name": "tokenURI",
          "type": "string"
        },
        {
          "indexed": false,
          "internalType": "uint16",
          "name": "tokenCount",
          "type": "uint16"
        }
      ],
      "name": "NFTMinted",
      "type": "event"
    },
    {
      "anonymous": false,
      "inputs": [
        {
          "indexed": true,
          "internalType": "address",
          "name": "previousOwner",
          "type": "address"
        },
        {
          "indexed": true,
          "internalType": "address",
          "name": "newOwner",
          "type": "address"
        }
      ],
      "name": "OwnershipTransferred",
      "type": "event"
    },
    {
      "anonymous": false,
      "inputs": [
        {
          "indexed": true,
          "internalType": "address",
          "name": "from",
          "type": "address"
        },
        {
          "indexed": true,
          "internalType": "address",
          "name": "to",
          "type": "address"
        },
        {
          "indexed": true,
          "internalType": "uint256",
          "name": "tokenId",
          "type": "uint256"
        }
      ],
      "name": "Transfer",
      "type": "event"
    },
    {
      "inputs": [
        {
          "internalType": "address",
          "name": "to",
          "type": "address"
        },
        {
          "internalType": "uint256",
          "name": "tokenId",
          "type": "uint256"
        }
      ],
      "name": "approve",
      "outputs": [],
      "stateMutability": "nonpayable",
      "type": "function"
    },
    {
      "inputs": [
        {
          "internalType": "address",
          "name": "owner",
          "type": "address"
        }
      ],
      "name": "balanceOf",
      "outputs": [
        {
          "internalType": "uint256",
          "name": "",
          "type": "uint256"
        }
      ],
      "stateMutability": "view",
      "type": "function"
    },
    {
      "inputs": [],
      "name": "baseExtension",
      "outputs": [
        {
          "internalType": "string",
          "name": "",
          "type": "string"
        }
      ],
      "stateMutability": "view",
      "type": "function"
    },
    {
      "inputs": [],
      "name": "baseURI",
      "outputs": [
        {
          "internalType": "string",
          "name": "",
          "type": "string"
        }
      ],
      "stateMutability": "view",
      "type": "function"
    },
    {
      "inputs": [
        {
          "internalType": "uint256",
          "name": "tokenId",
          "type": "uint256"
        }
      ],
      "name": "getApproved",
      "outputs": [
        {
          "internalType": "address",
          "name": "",
          "type": "address"
        }
      ],
      "stateMutability": "view",
      "type": "function"
    },
    {
      "inputs": [
        {
          "internalType": "address",
          "name": "owner",
          "type": "address"
        },
        {
          "internalType": "address",
          "name": "operator",
          "type": "address"
        }
      ],
      "name": "isApprovedForAll",
      "outputs": [
        {
          "internalType": "bool",
          "name": "",
          "type": "bool"
        }
      ],
      "stateMutability": "view",
      "type": "function"
    },
    {
      "inputs": [],
      "name": "maxSupply",
      "outputs": [
        {
          "internalType": "uint256",
          "name": "",
          "type": "uint256"
        }
      ],
      "stateMutability": "view",
      "type": "function"
    },
    {
      "inputs": [
        {
          "internalType": "uint256",
          "name": "_mintAmount",
          "type": "uint256"
        }
      ],
      "name": "mint",
      "outputs": [],
      "stateMutability": "payable",
      "type": "function"
    },
    {
      "inputs": [],
      "name": "mintPrice",
      "outputs": [
        {
          "internalType": "uint256",
          "name": "",
          "type": "uint256"
        }
      ],
      "stateMutability": "view",
      "type": "function"
    },
    {
      "inputs": [],
      "name": "name",
      "outputs": [
        {
          "internalType": "string",
          "name": "",
          "type": "string"
        }
      ],
      "stateMutability": "view",
      "type": "function"
    },
    {
      "inputs": [],
      "name": "owner",
      "outputs": [
        {
          "internalType": "address",
          "name": "",
          "type": "address"
        }
      ],
      "stateMutability": "view",
      "type": "function"
    },
    {
      "inputs": [
        {
          "internalType": "uint256",
          "name": "tokenId",
          "type": "uint256"
        }
      ],
      "name": "ownerOf",
      "outputs": [
        {
          "internalType": "address",
          "name": "",
          "type": "address"
        }
      ],
      "stateMutability": "view",
      "type": "function"
    },
    {
      "inputs": [],
      "name": "renounceOwnership",
      "outputs": [],
      "stateMutability": "nonpayable",
      "type": "function"
    },
    {
      "inputs": [
        {
          "internalType": "address",
          "name": "from",
          "type": "address"
        },
        {
          "internalType": "address",
          "name": "to",
          "type": "address"
        },
        {
          "internalType": "uint256",
          "name": "tokenId",
          "type": "uint256"
        }
      ],
      "name": "safeTransferFrom",
      "outputs": [],
      "stateMutability": "nonpayable",
      "type": "function"
    },
    {
      "inputs": [
        {
          "internalType": "address",
          "name": "from",
          "type": "address"
        },
        {
          "internalType": "address",
          "name": "to",
          "type": "address"
        },
        {
          "internalType": "uint256",
          "name": "tokenId",
          "type": "uint256"
        },
        {
          "internalType": "bytes",
          "name": "_data",
          "type": "bytes"
        }
      ],
      "name": "safeTransferFrom",
      "outputs": [],
      "stateMutability": "nonpayable",
      "type": "function"
    },
    {
      "inputs": [
        {
          "internalType": "address",
          "name": "operator",
          "type": "address"
        },
        {
          "internalType": "bool",
          "name": "approved",
          "type": "bool"
        }
      ],
      "name": "setApprovalForAll",
      "outputs": [],
      "stateMutability": "nonpayable",
      "type": "function"
    },
    {
      "inputs": [
        {
          "internalType": "string",
          "name": "_newBaseURI",
          "type": "string"
        }
      ],
      "name": "setBaseURI",
      "outputs": [],
      "stateMutability": "nonpayable",
      "type": "function"
    },
    {
      "inputs": [
        {
          "internalType": "bytes4",
          "name": "interfaceId",
          "type": "bytes4"
        }
      ],
      "name": "supportsInterface",
      "outputs": [
        {
          "internalType": "bool",
          "name": "",
          "type": "bool"
        }
      ],
      "stateMutability": "view",
      "type": "function"
    },
    {
      "inputs": [],
      "name": "symbol",
      "outputs": [
        {
          "internalType": "string",
          "name": "",
          "type": "string"
        }
      ],
      "stateMutability": "view",
      "type": "function"
    },
    {
      "inputs": [],
      "name": "tokenCount",
      "outputs": [
        {
          "internalType": "uint256",
          "name": "",
          "type": "uint256"
        }
      ],
      "stateMutability": "view",
      "type": "function"
    },
    {
      "inputs": [
        {
          "internalType": "uint256",
          "name": "tokenId",
          "type": "uint256"
        }
      ],
      "name": "tokenURI",
      "outputs": [
        {
          "internalType": "string",
          "name": "",
          "type": "string"
        }
      ],
      "stateMutability": "view",
      "type": "function"
    },
    {
      "inputs": [
        {
          "internalType": "address",
          "name": "from",
          "type": "address"
        },
        {
          "internalType": "address",
          "name": "to",
          "type": "address"
        },
        {
          "internalType": "uint256",
          "name": "tokenId",
          "type": "uint256"
        }
      ],
      "name": "transferFrom",
      "outputs": [],
      "stateMutability": "nonpayable",
      "type": "function"
    },
    {
      "inputs": [
        {
          "internalType": "address",
          "name": "newOwner",
          "type": "address"
        }
      ],
      "name": "transferOwnership",
      "outputs": [],
      "stateMutability": "nonpayable",
      "type": "function"
    },
    {
      "inputs": [],
      "name": "withdrawEth",
      "outputs": [],
      "stateMutability": "nonpayable",
      "type": "function"
    }
  ],
  "bytecode": "0x60806040526040518060400160405280600481526020017f2e6a706700000000000000000000000000000000000000000000000000000000815250600890805190602001906200005192919062000478565b503480156200005f57600080fd5b5060405162003af138038062003af18339818101604052810190620000859190620005b1565b848481600090805190602001906200009f92919062000478565b508060019080519060200190620000b892919062000478565b505050620000db620000cf6200013a60201b60201c565b6200014260201b60201c565b81600a8190555080600b8190555082600790805190602001906200010192919062000478565b50620001153360016200020860201b60201c565b600960008154809291906200012a9062000889565b91905055505050505050620009e1565b600033905090565b6000600660009054906101000a900473ffffffffffffffffffffffffffffffffffffffff16905081600660006101000a81548173ffffffffffffffffffffffffffffffffffffffff021916908373ffffffffffffffffffffffffffffffffffffffff1602179055508173ffffffffffffffffffffffffffffffffffffffff168173ffffffffffffffffffffffffffffffffffffffff167f8be0079c531659141344cd1fd0a4f28419497f9722a3daafe3b4186f6b6457e060405160405180910390a35050565b600073ffffffffffffffffffffffffffffffffffffffff168273ffffffffffffffffffffffffffffffffffffffff1614156200027b576040517f08c379a00000000000000000000000000000000000000000000000000000000081526004016200027290620006ee565b60405180910390fd5b6200028c816200040260201b60201c565b15620002cf576040517f08c379a0000000000000000000000000000000000000000000000000000000008152600401620002c690620006cc565b60405180910390fd5b620002e3600083836200046e60201b60201c565b6001600360008473ffffffffffffffffffffffffffffffffffffffff1673ffffffffffffffffffffffffffffffffffffffff168152602001908152602001600020600082825462000335919062000780565b92505081905550816002600083815260200190815260200160002060006101000a81548173ffffffffffffffffffffffffffffffffffffffff021916908373ffffffffffffffffffffffffffffffffffffffff160217905550808273ffffffffffffffffffffffffffffffffffffffff16600073ffffffffffffffffffffffffffffffffffffffff167fddf252ad1be2c89b69c2b068fc378daa952ba7f163c4a11628f55a4df523b3ef60405160405180910390a4620003fe600083836200047360201b60201c565b5050565b60008073ffffffffffffffffffffffffffffffffffffffff166002600084815260200190815260200160002060009054906101000a900473ffffffffffffffffffffffffffffffffffffffff1673ffffffffffffffffffffffffffffffffffffffff1614159050919050565b505050565b505050565b82805462000486906200081d565b90600052602060002090601f016020900481019282620004aa5760008555620004f6565b82601f10620004c557805160ff1916838001178555620004f6565b82800160010185558215620004f6579182015b82811115620004f5578251825591602001919060010190620004d8565b5b50905062000505919062000509565b5090565b5b80821115620005245760008160009055506001016200050a565b5090565b60006200053f620005398462000739565b62000710565b9050828152602081018484840111156200055857600080fd5b62000565848285620007e7565b509392505050565b600082601f8301126200057f57600080fd5b81516200059184826020860162000528565b91505092915050565b600081519050620005ab81620009c7565b92915050565b600080600080600060a08688031215620005ca57600080fd5b600086015167ffffffffffffffff811115620005e557600080fd5b620005f3888289016200056d565b955050602086015167ffffffffffffffff8111156200061157600080fd5b6200061f888289016200056d565b945050604086015167ffffffffffffffff8111156200063d57600080fd5b6200064b888289016200056d565b93505060606200065e888289016200059a565b925050608062000671888289016200059a565b9150509295509295909350565b60006200068d601c836200076f565b91506200069a8262000975565b602082019050919050565b6000620006b46020836200076f565b9150620006c1826200099e565b602082019050919050565b60006020820190508181036000830152620006e7816200067e565b9050919050565b600060208201905081810360008301526200070981620006a5565b9050919050565b60006200071c6200072f565b90506200072a828262000853565b919050565b6000604051905090565b600067ffffffffffffffff82111562000757576200075662000935565b5b620007628262000964565b9050602081019050919050565b600082825260208201905092915050565b60006200078d82620007dd565b91506200079a83620007dd565b9250827fffffffffffffffffffffffffffffffffffffffffffffffffffffffffffffffff03821115620007d257620007d1620008d7565b5b828201905092915050565b6000819050919050565b60005b8381101562000807578082015181840152602081019050620007ea565b8381111562000817576000848401525b50505050565b600060028204905060018216806200083657607f821691505b602082108114156200084d576200084c62000906565b5b50919050565b6200085e8262000964565b810181811067ffffffffffffffff8211171562000880576200087f62000935565b5b80604052505050565b60006200089682620007dd565b91507fffffffffffffffffffffffffffffffffffffffffffffffffffffffffffffffff821415620008cc57620008cb620008d7565b5b600182019050919050565b7f4e487b7100000000000000000000000000000000000000000000000000000000600052601160045260246000fd5b7f4e487b7100000000000000000000000000000000000000000000000000000000600052602260045260246000fd5b7f4e487b7100000000000000000000000000000000000000000000000000000000600052604160045260246000fd5b6000601f19601f8301169050919050565b7f4552433732313a20746f6b656e20616c7265616479206d696e74656400000000600082015250565b7f4552433732313a206d696e7420746f20746865207a65726f2061646472657373600082015250565b620009d281620007dd565b8114620009de57600080fd5b50565b61310080620009f16000396000f3fe60806040526004361061014b5760003560e01c80638da5cb5b116100b6578063b88d4fde1161006f578063b88d4fde1461045d578063c668286214610486578063c87b56dd146104b1578063d5abeb01146104ee578063e985e9c514610519578063f2fde38b146105565761014b565b80638da5cb5b1461038057806395d89b41146103ab5780639f181b5e146103d6578063a0712d6814610401578063a0ef91df1461041d578063a22cb465146104345761014b565b806355f804b31161010857806355f804b3146102705780636352211e146102995780636817c76c146102d65780636c0360eb1461030157806370a082311461032c578063715018a6146103695761014b565b806301ffc9a71461015057806306fdde031461018d578063081812fc146101b8578063095ea7b3146101f557806323b872dd1461021e57806342842e0e14610247575b600080fd5b34801561015c57600080fd5b5061017760048036038101906101729190612103565b61057f565b60405161018491906125f1565b60405180910390f35b34801561019957600080fd5b506101a2610661565b6040516101af919061260c565b60405180910390f35b3480156101c457600080fd5b506101df60048036038101906101da9190612196565b6106f3565b6040516101ec919061258a565b60405180910390f35b34801561020157600080fd5b5061021c600480360381019061021791906120c7565b610778565b005b34801561022a57600080fd5b5061024560048036038101906102409190611fc1565b610890565b005b34801561025357600080fd5b5061026e60048036038101906102699190611fc1565b6108f0565b005b34801561027c57600080fd5b5061029760048036038101906102929190612155565b610910565b005b3480156102a557600080fd5b506102c060048036038101906102bb9190612196565b6109a6565b6040516102cd919061258a565b60405180910390f35b3480156102e257600080fd5b506102eb610a58565b6040516102f8919061282e565b60405180910390f35b34801561030d57600080fd5b50610316610a5e565b604051610323919061260c565b60405180910390f35b34801561033857600080fd5b50610353600480360381019061034e9190611f5c565b610aec565b604051610360919061282e565b60405180910390f35b34801561037557600080fd5b5061037e610ba4565b005b34801561038c57600080fd5b50610395610c2c565b6040516103a2919061258a565b60405180910390f35b3480156103b757600080fd5b506103c0610c56565b6040516103cd919061260c565b60405180910390f35b3480156103e257600080fd5b506103eb610ce8565b6040516103f8919061282e565b60405180910390f35b61041b60048036038101906104169190612196565b610cee565b005b34801561042957600080fd5b50610432610d6d565b005b34801561044057600080fd5b5061045b6004803603810190610456919061208b565b610e32565b005b34801561046957600080fd5b50610484600480360381019061047f9190612010565b610e48565b005b34801561049257600080fd5b5061049b610eaa565b6040516104a8919061260c565b60405180910390f35b3480156104bd57600080fd5b506104d860048036038101906104d39190612196565b610f38565b6040516104e5919061260c565b60405180910390f35b3480156104fa57600080fd5b50610503610fda565b604051610510919061282e565b60405180910390f35b34801561052557600080fd5b50610540600480360381019061053b9190611f85565b610fe0565b60405161054d91906125f1565b60405180910390f35b34801561056257600080fd5b5061057d60048036038101906105789190611f5c565b611074565b005b60007f80ac58cd000000000000000000000000000000000000000000000000000000007bffffffffffffffffffffffffffffffffffffffffffffffffffffffff1916827bffffffffffffffffffffffffffffffffffffffffffffffffffffffff1916148061064a57507f5b5e139f000000000000000000000000000000000000000000000000000000007bffffffffffffffffffffffffffffffffffffffffffffffffffffffff1916827bffffffffffffffffffffffffffffffffffffffffffffffffffffffff1916145b8061065a57506106598261116c565b5b9050919050565b60606000805461067090612ac2565b80601f016020809104026020016040519081016040528092919081815260200182805461069c90612ac2565b80156106e95780601f106106be576101008083540402835291602001916106e9565b820191906000526020600020905b8154815290600101906020018083116106cc57829003601f168201915b5050505050905090565b60006106fe826111d6565b61073d576040517f08c379a00000000000000000000000000000000000000000000000000000000081526004016107349061278e565b60405180910390fd5b6004600083815260200190815260200160002060009054906101000a900473ffffffffffffffffffffffffffffffffffffffff169050919050565b6000610783826109a6565b90508073ffffffffffffffffffffffffffffffffffffffff168373ffffffffffffffffffffffffffffffffffffffff1614156107f4576040517f08c379a00000000000000000000000000000000000000000000000000000000081526004016107eb906127ee565b60405180910390fd5b8073ffffffffffffffffffffffffffffffffffffffff16610813611242565b73ffffffffffffffffffffffffffffffffffffffff16148061084257506108418161083c611242565b610fe0565b5b610881576040517f08c379a00000000000000000000000000000000000000000000000000000000081526004016108789061270e565b60405180910390fd5b61088b838361124a565b505050565b6108a161089b611242565b82611303565b6108e0576040517f08c379a00000000000000000000000000000000000000000000000000000000081526004016108d79061280e565b60405180910390fd5b6108eb8383836113e1565b505050565b61090b83838360405180602001604052806000815250610e48565b505050565b610918611242565b73ffffffffffffffffffffffffffffffffffffffff16610936610c2c565b73ffffffffffffffffffffffffffffffffffffffff161461098c576040517f08c379a0000000000000000000000000000000000000000000000000000000008152600401610983906127ae565b60405180910390fd5b80600790805190602001906109a2929190611d80565b5050565b6000806002600084815260200190815260200160002060009054906101000a900473ffffffffffffffffffffffffffffffffffffffff169050600073ffffffffffffffffffffffffffffffffffffffff168173ffffffffffffffffffffffffffffffffffffffff161415610a4f576040517f08c379a0000000000000000000000000000000000000000000000000000000008152600401610a469061274e565b60405180910390fd5b80915050919050565b600b5481565b60078054610a6b90612ac2565b80601f0160208091040260200160405190810160405280929190818152602001828054610a9790612ac2565b8015610ae45780601f10610ab957610100808354040283529160200191610ae4565b820191906000526020600020905b815481529060010190602001808311610ac757829003601f168201915b505050505081565b60008073ffffffffffffffffffffffffffffffffffffffff168273ffffffffffffffffffffffffffffffffffffffff161415610b5d576040517f08c379a0000000000000000000000000000000000000000000000000000000008152600401610b549061272e565b60405180910390fd5b600360008373ffffffffffffffffffffffffffffffffffffffff1673ffffffffffffffffffffffffffffffffffffffff168152602001908152602001600020549050919050565b610bac611242565b73ffffffffffffffffffffffffffffffffffffffff16610bca610c2c565b73ffffffffffffffffffffffffffffffffffffffff1614610c20576040517f08c379a0000000000000000000000000000000000000000000000000000000008152600401610c17906127ae565b60405180910390fd5b610c2a6000611648565b565b6000600660009054906101000a900473ffffffffffffffffffffffffffffffffffffffff16905090565b606060018054610c6590612ac2565b80601f0160208091040260200160405190810160405280929190818152602001828054610c9190612ac2565b8015610cde5780601f10610cb357610100808354040283529160200191610cde565b820191906000526020600020905b815481529060010190602001808311610cc157829003601f168201915b5050505050905090565b60095481565b60008111610cfb57600080fd5b600a5481600954610d0c9190612928565b1115610d1757600080fd5b80600b54610d25919061297e565b341015610d3157600080fd5b6000600190505b818111610d6957610d563382600954610d519190612928565b61170e565b8080610d6190612b25565b915050610d38565b5050565b610d75611242565b73ffffffffffffffffffffffffffffffffffffffff16610d93610c2c565b73ffffffffffffffffffffffffffffffffffffffff1614610de9576040517f08c379a0000000000000000000000000000000000000000000000000000000008152600401610de0906127ae565b60405180910390fd5b3373ffffffffffffffffffffffffffffffffffffffff166108fc479081150290604051600060405180830381858888f19350505050158015610e2f573d6000803e3d6000fd5b50565b610e44610e3d611242565b838361172c565b5050565b610e59610e53611242565b83611303565b610e98576040517f08c379a0000000000000000000000000000000000000000000000000000000008152600401610e8f9061280e565b60405180910390fd5b610ea484848484611899565b50505050565b60088054610eb790612ac2565b80601f0160208091040260200160405190810160405280929190818152602001828054610ee390612ac2565b8015610f305780601f10610f0557610100808354040283529160200191610f30565b820191906000526020600020905b815481529060010190602001808311610f1357829003601f168201915b505050505081565b6060610f43826111d6565b610f82576040517f08c379a0000000000000000000000000000000000000000000000000000000008152600401610f79906127ce565b60405180910390fd5b6000610f8c6118f5565b90506000815111610fac5760405180602001604052806000815250610fd2565b80836008604051602001610fc293929190612555565b6040516020818303038152906040525b915050919050565b600a5481565b6000600560008473ffffffffffffffffffffffffffffffffffffffff1673ffffffffffffffffffffffffffffffffffffffff16815260200190815260200160002060008373ffffffffffffffffffffffffffffffffffffffff1673ffffffffffffffffffffffffffffffffffffffff16815260200190815260200160002060009054906101000a900460ff16905092915050565b61107c611242565b73ffffffffffffffffffffffffffffffffffffffff1661109a610c2c565b73ffffffffffffffffffffffffffffffffffffffff16146110f0576040517f08c379a00000000000000000000000000000000000000000000000000000000081526004016110e7906127ae565b60405180910390fd5b600073ffffffffffffffffffffffffffffffffffffffff168173ffffffffffffffffffffffffffffffffffffffff161415611160576040517f08c379a00000000000000000000000000000000000000000000000000000000081526004016111579061264e565b60405180910390fd5b61116981611648565b50565b60007f01ffc9a7000000000000000000000000000000000000000000000000000000007bffffffffffffffffffffffffffffffffffffffffffffffffffffffff1916827bffffffffffffffffffffffffffffffffffffffffffffffffffffffff1916149050919050565b60008073ffffffffffffffffffffffffffffffffffffffff166002600084815260200190815260200160002060009054906101000a900473ffffffffffffffffffffffffffffffffffffffff1673ffffffffffffffffffffffffffffffffffffffff1614159050919050565b600033905090565b816004600083815260200190815260200160002060006101000a81548173ffffffffffffffffffffffffffffffffffffffff021916908373ffffffffffffffffffffffffffffffffffffffff160217905550808273ffffffffffffffffffffffffffffffffffffffff166112bd836109a6565b73ffffffffffffffffffffffffffffffffffffffff167f8c5be1e5ebec7d5bd14f71427d1e84f3dd0314c0f7b2291e5b200ac8c7c3b92560405160405180910390a45050565b600061130e826111d6565b61134d576040517f08c379a0000000000000000000000000000000000000000000000000000000008152600401611344906126ee565b60405180910390fd5b6000611358836109a6565b90508073ffffffffffffffffffffffffffffffffffffffff168473ffffffffffffffffffffffffffffffffffffffff1614806113c757508373ffffffffffffffffffffffffffffffffffffffff166113af846106f3565b73ffffffffffffffffffffffffffffffffffffffff16145b806113d857506113d78185610fe0565b5b91505092915050565b8273ffffffffffffffffffffffffffffffffffffffff16611401826109a6565b73ffffffffffffffffffffffffffffffffffffffff1614611457576040517f08c379a000000000000000000000000000000000000000000000000000000000815260040161144e9061266e565b60405180910390fd5b600073ffffffffffffffffffffffffffffffffffffffff168273ffffffffffffffffffffffffffffffffffffffff1614156114c7576040517f08c379a00000000000000000000000000000000000000000000000000000000081526004016114be906126ae565b60405180910390fd5b6114d2838383611987565b6114dd60008261124a565b6001600360008573ffffffffffffffffffffffffffffffffffffffff1673ffffffffffffffffffffffffffffffffffffffff168152602001908152602001600020600082825461152d91906129d8565b925050819055506001600360008473ffffffffffffffffffffffffffffffffffffffff1673ffffffffffffffffffffffffffffffffffffffff16815260200190815260200160002060008282546115849190612928565b92505081905550816002600083815260200190815260200160002060006101000a81548173ffffffffffffffffffffffffffffffffffffffff021916908373ffffffffffffffffffffffffffffffffffffffff160217905550808273ffffffffffffffffffffffffffffffffffffffff168473ffffffffffffffffffffffffffffffffffffffff167fddf252ad1be2c89b69c2b068fc378daa952ba7f163c4a11628f55a4df523b3ef60405160405180910390a461164383838361198c565b505050565b6000600660009054906101000a900473ffffffffffffffffffffffffffffffffffffffff16905081600660006101000a81548173ffffffffffffffffffffffffffffffffffffffff021916908373ffffffffffffffffffffffffffffffffffffffff1602179055508173ffffffffffffffffffffffffffffffffffffffff168173ffffffffffffffffffffffffffffffffffffffff167f8be0079c531659141344cd1fd0a4f28419497f9722a3daafe3b4186f6b6457e060405160405180910390a35050565b611728828260405180602001604052806000815250611991565b5050565b8173ffffffffffffffffffffffffffffffffffffffff168373ffffffffffffffffffffffffffffffffffffffff16141561179b576040517f08c379a0000000000000000000000000000000000000000000000000000000008152600401611792906126ce565b60405180910390fd5b80600560008573ffffffffffffffffffffffffffffffffffffffff1673ffffffffffffffffffffffffffffffffffffffff16815260200190815260200160002060008473ffffffffffffffffffffffffffffffffffffffff1673ffffffffffffffffffffffffffffffffffffffff16815260200190815260200160002060006101000a81548160ff0219169083151502179055508173ffffffffffffffffffffffffffffffffffffffff168373ffffffffffffffffffffffffffffffffffffffff167f17307eab39ab6107e8899845ad3d59bd9653f200f220920489ca2b5937696c318360405161188c91906125f1565b60405180910390a3505050565b6118a48484846113e1565b6118b0848484846119ec565b6118ef576040517f08c379a00000000000000000000000000000000000000000000000000000000081526004016118e69061262e565b60405180910390fd5b50505050565b60606007805461190490612ac2565b80601f016020809104026020016040519081016040528092919081815260200182805461193090612ac2565b801561197d5780601f106119525761010080835404028352916020019161197d565b820191906000526020600020905b81548152906001019060200180831161196057829003601f168201915b5050505050905090565b505050565b505050565b61199b8383611b83565b6119a860008484846119ec565b6119e7576040517f08c379a00000000000000000000000000000000000000000000000000000000081526004016119de9061262e565b60405180910390fd5b505050565b6000611a0d8473ffffffffffffffffffffffffffffffffffffffff16611d5d565b15611b76578373ffffffffffffffffffffffffffffffffffffffff1663150b7a02611a36611242565b8786866040518563ffffffff1660e01b8152600401611a5894939291906125a5565b602060405180830381600087803b158015611a7257600080fd5b505af1925050508015611aa357506040513d601f19601f82011682018060405250810190611aa0919061212c565b60015b611b26573d8060008114611ad3576040519150601f19603f3d011682016040523d82523d6000602084013e611ad8565b606091505b50600081511415611b1e576040517f08c379a0000000000000000000000000000000000000000000000000000000008152600401611b159061262e565b60405180910390fd5b805181602001fd5b63150b7a0260e01b7bffffffffffffffffffffffffffffffffffffffffffffffffffffffff1916817bffffffffffffffffffffffffffffffffffffffffffffffffffffffff191614915050611b7b565b600190505b949350505050565b600073ffffffffffffffffffffffffffffffffffffffff168273ffffffffffffffffffffffffffffffffffffffff161415611bf3576040517f08c379a0000000000000000000000000000000000000000000000000000000008152600401611bea9061276e565b60405180910390fd5b611bfc816111d6565b15611c3c576040517f08c379a0000000000000000000000000000000000000000000000000000000008152600401611c339061268e565b60405180910390fd5b611c4860008383611987565b6001600360008473ffffffffffffffffffffffffffffffffffffffff1673ffffffffffffffffffffffffffffffffffffffff1681526020019081526020016000206000828254611c989190612928565b92505081905550816002600083815260200190815260200160002060006101000a81548173ffffffffffffffffffffffffffffffffffffffff021916908373ffffffffffffffffffffffffffffffffffffffff160217905550808273ffffffffffffffffffffffffffffffffffffffff16600073ffffffffffffffffffffffffffffffffffffffff167fddf252ad1be2c89b69c2b068fc378daa952ba7f163c4a11628f55a4df523b3ef60405160405180910390a4611d596000838361198c565b5050565b6000808273ffffffffffffffffffffffffffffffffffffffff163b119050919050565b828054611d8c90612ac2565b90600052602060002090601f016020900481019282611dae5760008555611df5565b82601f10611dc757805160ff1916838001178555611df5565b82800160010185558215611df5579182015b82811115611df4578251825591602001919060010190611dd9565b5b509050611e029190611e06565b5090565b5b80821115611e1f576000816000905550600101611e07565b5090565b6000611e36611e318461286e565b612849565b905082815260208101848484011115611e4e57600080fd5b611e59848285612a80565b509392505050565b6000611e74611e6f8461289f565b612849565b905082815260208101848484011115611e8c57600080fd5b611e97848285612a80565b509392505050565b600081359050611eae8161306e565b92915050565b600081359050611ec381613085565b92915050565b600081359050611ed88161309c565b92915050565b600081519050611eed8161309c565b92915050565b600082601f830112611f0457600080fd5b8135611f14848260208601611e23565b91505092915050565b600082601f830112611f2e57600080fd5b8135611f3e848260208601611e61565b91505092915050565b600081359050611f56816130b3565b92915050565b600060208284031215611f6e57600080fd5b6000611f7c84828501611e9f565b91505092915050565b60008060408385031215611f9857600080fd5b6000611fa685828601611e9f565b9250506020611fb785828601611e9f565b9150509250929050565b600080600060608486031215611fd657600080fd5b6000611fe486828701611e9f565b9350506020611ff586828701611e9f565b925050604061200686828701611f47565b9150509250925092565b6000806000806080858703121561202657600080fd5b600061203487828801611e9f565b945050602061204587828801611e9f565b935050604061205687828801611f47565b925050606085013567ffffffffffffffff81111561207357600080fd5b61207f87828801611ef3565b91505092959194509250565b6000806040838503121561209e57600080fd5b60006120ac85828601611e9f565b92505060206120bd85828601611eb4565b9150509250929050565b600080604083850312156120da57600080fd5b60006120e885828601611e9f565b92505060206120f985828601611f47565b9150509250929050565b60006020828403121561211557600080fd5b600061212384828501611ec9565b91505092915050565b60006020828403121561213e57600080fd5b600061214c84828501611ede565b91505092915050565b60006020828403121561216757600080fd5b600082013567ffffffffffffffff81111561218157600080fd5b61218d84828501611f1d565b91505092915050565b6000602082840312156121a857600080fd5b60006121b684828501611f47565b91505092915050565b6121c881612a0c565b82525050565b6121d781612a1e565b82525050565b60006121e8826128e5565b6121f281856128fb565b9350612202818560208601612a8f565b61220b81612c05565b840191505092915050565b6000612221826128f0565b61222b818561290c565b935061223b818560208601612a8f565b61224481612c05565b840191505092915050565b600061225a826128f0565b612264818561291d565b9350612274818560208601612a8f565b80840191505092915050565b6000815461228d81612ac2565b612297818661291d565b945060018216600081146122b257600181146122c3576122f6565b60ff198316865281860193506122f6565b6122cc856128d0565b60005b838110156122ee578154818901526001820191506020810190506122cf565b838801955050505b50505092915050565b600061230c60328361290c565b915061231782612c16565b604082019050919050565b600061232f60268361290c565b915061233a82612c65565b604082019050919050565b600061235260258361290c565b915061235d82612cb4565b604082019050919050565b6000612375601c8361290c565b915061238082612d03565b602082019050919050565b600061239860248361290c565b91506123a382612d2c565b604082019050919050565b60006123bb60198361290c565b91506123c682612d7b565b602082019050919050565b60006123de602c8361290c565b91506123e982612da4565b604082019050919050565b600061240160388361290c565b915061240c82612df3565b604082019050919050565b6000612424602a8361290c565b915061242f82612e42565b604082019050919050565b600061244760298361290c565b915061245282612e91565b604082019050919050565b600061246a60208361290c565b915061247582612ee0565b602082019050919050565b600061248d602c8361290c565b915061249882612f09565b604082019050919050565b60006124b060208361290c565b91506124bb82612f58565b602082019050919050565b60006124d3602f8361290c565b91506124de82612f81565b604082019050919050565b60006124f660218361290c565b915061250182612fd0565b604082019050919050565b600061251960318361290c565b91506125248261301f565b604082019050919050565b61253881612a76565b82525050565b61254f61254a82612a76565b612b6e565b82525050565b6000612561828661224f565b915061256d828561253e565b60208201915061257d8284612280565b9150819050949350505050565b600060208201905061259f60008301846121bf565b92915050565b60006080820190506125ba60008301876121bf565b6125c760208301866121bf565b6125d4604083018561252f565b81810360608301526125e681846121dd565b905095945050505050565b600060208201905061260660008301846121ce565b92915050565b600060208201905081810360008301526126268184612216565b905092915050565b60006020820190508181036000830152612647816122ff565b9050919050565b6000602082019050818103600083015261266781612322565b9050919050565b6000602082019050818103600083015261268781612345565b9050919050565b600060208201905081810360008301526126a781612368565b9050919050565b600060208201905081810360008301526126c78161238b565b9050919050565b600060208201905081810360008301526126e7816123ae565b9050919050565b60006020820190508181036000830152612707816123d1565b9050919050565b60006020820190508181036000830152612727816123f4565b9050919050565b6000602082019050818103600083015261274781612417565b9050919050565b600060208201905081810360008301526127678161243a565b9050919050565b600060208201905081810360008301526127878161245d565b9050919050565b600060208201905081810360008301526127a781612480565b9050919050565b600060208201905081810360008301526127c7816124a3565b9050919050565b600060208201905081810360008301526127e7816124c6565b9050919050565b60006020820190508181036000830152612807816124e9565b9050919050565b600060208201905081810360008301526128278161250c565b9050919050565b6000602082019050612843600083018461252f565b92915050565b6000612853612864565b905061285f8282612af4565b919050565b6000604051905090565b600067ffffffffffffffff82111561288957612888612bd6565b5b61289282612c05565b9050602081019050919050565b600067ffffffffffffffff8211156128ba576128b9612bd6565b5b6128c382612c05565b9050602081019050919050565b60008190508160005260206000209050919050565b600081519050919050565b600081519050919050565b600082825260208201905092915050565b600082825260208201905092915050565b600081905092915050565b600061293382612a76565b915061293e83612a76565b9250827fffffffffffffffffffffffffffffffffffffffffffffffffffffffffffffffff0382111561297357612972612b78565b5b828201905092915050565b600061298982612a76565b915061299483612a76565b9250817fffffffffffffffffffffffffffffffffffffffffffffffffffffffffffffffff04831182151516156129cd576129cc612b78565b5b828202905092915050565b60006129e382612a76565b91506129ee83612a76565b925082821015612a0157612a00612b78565b5b828203905092915050565b6000612a1782612a56565b9050919050565b60008115159050919050565b60007fffffffff0000000000000000000000000000000000000000000000000000000082169050919050565b600073ffffffffffffffffffffffffffffffffffffffff82169050919050565b6000819050919050565b82818337600083830152505050565b60005b83811015612aad578082015181840152602081019050612a92565b83811115612abc576000848401525b50505050565b60006002820490506001821680612ada57607f821691505b60208210811415612aee57612aed612ba7565b5b50919050565b612afd82612c05565b810181811067ffffffffffffffff82111715612b1c57612b1b612bd6565b5b80604052505050565b6000612b3082612a76565b91507fffffffffffffffffffffffffffffffffffffffffffffffffffffffffffffffff821415612b6357612b62612b78565b5b600182019050919050565b6000819050919050565b7f4e487b7100000000000000000000000000000000000000000000000000000000600052601160045260246000fd5b7f4e487b7100000000000000000000000000000000000000000000000000000000600052602260045260246000fd5b7f4e487b7100000000000000000000000000000000000000000000000000000000600052604160045260246000fd5b6000601f19601f8301169050919050565b7f4552433732313a207472616e7366657220746f206e6f6e20455243373231526560008201527f63656976657220696d706c656d656e7465720000000000000000000000000000602082015250565b7f4f776e61626c653a206e6577206f776e657220697320746865207a65726f206160008201527f6464726573730000000000000000000000000000000000000000000000000000602082015250565b7f4552433732313a207472616e736665722066726f6d20696e636f72726563742060008201527f6f776e6572000000000000000000000000000000000000000000000000000000602082015250565b7f4552433732313a20746f6b656e20616c7265616479206d696e74656400000000600082015250565b7f4552433732313a207472616e7366657220746f20746865207a65726f2061646460008201527f7265737300000000000000000000000000000000000000000000000000000000602082015250565b7f4552433732313a20617070726f766520746f2063616c6c657200000000000000600082015250565b7f4552433732313a206f70657261746f7220717565727920666f72206e6f6e657860008201527f697374656e7420746f6b656e0000000000000000000000000000000000000000602082015250565b7f4552433732313a20617070726f76652063616c6c6572206973206e6f74206f7760008201527f6e6572206e6f7220617070726f76656420666f7220616c6c0000000000000000602082015250565b7f4552433732313a2062616c616e636520717565727920666f7220746865207a6560008201527f726f206164647265737300000000000000000000000000000000000000000000602082015250565b7f4552433732313a206f776e657220717565727920666f72206e6f6e657869737460008201527f656e7420746f6b656e0000000000000000000000000000000000000000000000602082015250565b7f4552433732313a206d696e7420746f20746865207a65726f2061646472657373600082015250565b7f4552433732313a20617070726f76656420717565727920666f72206e6f6e657860008201527f697374656e7420746f6b656e0000000000000000000000000000000000000000602082015250565b7f4f776e61626c653a2063616c6c6572206973206e6f7420746865206f776e6572600082015250565b7f4552433732314d657461646174613a2055524920717565727920666f72206e6f60008201527f6e6578697374656e7420746f6b656e0000000000000000000000000000000000602082015250565b7f4552433732313a20617070726f76616c20746f2063757272656e74206f776e6560008201527f7200000000000000000000000000000000000000000000000000000000000000602082015250565b7f4552433732313a207472616e736665722063616c6c6572206973206e6f74206f60008201527f776e6572206e6f7220617070726f766564000000000000000000000000000000602082015250565b61307781612a0c565b811461308257600080fd5b50565b61308e81612a1e565b811461309957600080fd5b50565b6130a581612a2a565b81146130b057600080fd5b50565b6130bc81612a76565b81146130c757600080fd5b5056fea2646970667358221220a6879f6edd91492a011f2c700993b65d038236d88ddee04d825e8e3e7df3d07364736f6c63430008040033",
  "linkReferences": {},
  "deployedLinkReferences": {}
}